:020000040800F2
:10000000100D0020FD010008B3510008053E000856
:10001000B151000857180008ED6100080000000009
:10002000000000000000000000000000CD590008A2
:100030009B1800080000000021520008CF5900085A
:10004000170200081702000817020008170200082C
:10005000170200081702000817020008170200081C
:10006000170200081702000817020008170200080C
:100070001702000817020008591800086518000840
:1000800017020008170200081702000817020008EC
:1000900017020008170200081702000817020008DC
:1000A00017020008170200081702000817020008CC
:1000B00017020008170200081702000817020008BC
:1000C00017020008170200081702000817020008AC
:1000D00017020008D5610008E16100081702000856
:1000E000170200081702000817020008170200088C
:1000F000170200081702000817020008170200087C
:10010000170200081702000817020008170200086B
:100110001702000817020008C15B00081702000858
:10012000170200081702000817020008170200084B
:1001300000F002F800F053F80AA090E8000C8244A6
:100140008344AAF10107DA4501D100F048F8AFF283
:10015000090EBAE80F0013F0010F18BFFB1A43F0A5
:1001600001031847C0B10000E0B10000103A24BFFD
:1001700078C878C1FAD8520724BF30C830C144BF0C
:1001800004680C607047000000230024002500264E
:10019000103A28BF78C1FBD8520728BF30C148BFEA
:1001A0000B607047662909F03A81642900F0B68037
:1001B000732900F05085002070471FB500F0EAFD5C
:1001C00004000020002108F0CFF9401C60600020EE
:1001D000002108F0B3F9E0601FBD10B510BD00F0BC
:1001E00043FF1146FFF7E9FF07F024F900F06FFF26
:1001F00003B4FFF7F2FF03BC06F087F80948804715
:1002000009480047FEE7FEE7FEE7FEE7FEE7FEE7F8
:10021000FEE7FEE7FEE7FEE704480549054A064B10
:1002200070470000535A00083101000810070020F1
:10023000100D00201009002010090020704710B593
:100240004C1084EA530404D54042C1F1000138BF88
:10025000491E1B4204D55242C3F1000338BF5B1E46
:1002600000F0ECF914F0804F04D04042C1F10001DD
:1002700038BF491E14F0004F04D05242C3F10003AE
:1002800038BF5B1E10BD00000FB4044910B503AAAF
:10029000029800F0E5FC10BC5DF814FB340000206F
:1002A0000FB41CB5074B06AA7B446946009005981D
:1002B00000F0A7FC0020694600F0B6FC1CBC5DF80D
:1002C00014FB00007D09000070B50C460546012AAC
:1002D00005D02878800600D5EA69002302E00123D2
:1002E00005E05B1C934202D2E05C0028F9D1A869CA
:1002F000E618C01AA861286A184428622846AFF395
:10030000008004E0D5E9012114F8010B9047B442C4
:10031000F8D32846AFF3008070BD00002DE9F0410E
:100320000646002410687529314616A510D0AFF393
:100330000080002802DA404213A507E031688A07EE
:1003400001D512A502E0490704D511A5012401E059
:10035000AFF3008000210A2206F1240709E0B0FB78
:10036000F2FCB0FBF2F302FB1C003030785418466C
:10037000491C0028F3D123462A463046BDE8F04107
:1003800000F0D3B9000000002D0000002B00000099
:10039000200000002DE9F05F894604464FF0000A76
:1003A000DFF824B1FB44C0F820A02046E16888476C
:1003B00000287DD0252806D0D4E901219047206A65
:1003C000401C2062F1E700255F462046E16888472F
:1003D0002028064607DB312E05D2B81910F8200C6C
:1003E00008B10543F1E7A80701D525F00405C4F8D5
:1003F0001CA00027C4F818A02A2E09D0304605F00A
:100400007DFF38B304EB8708303EC8F8186019E068
:1004100059F8041B204604EB87029161E168884784
:10042000012F064618D1E069002820DA25F02005C2
:100430001DE0D8F8180000EB800006EB40003038D3
:10044000C8F818002046E1688847064605F056FFC0
:100450000028EED1012F0AD02E2E08D12046E168C7
:1004600088477F1C0646022F45F02005C4DBA069A3
:10047000002803DA404245F00105A061E80701D0F9
:1004800025F01005A6B1A6F14100192802D82036A2
:1004900045F400654A463146204625604D46FFF743
:1004A00081FE60B1012807D0ED1D25F0070000E0B6
:1004B00007E000F1080978E705F1040975E730461F
:1004C0007AE7206ABDE8F09FE0AD000070B506460F
:1004D00000F0B0F80468054630460A22002100F01A
:1004E000D1FB2C6070BD0000014A00F003BC00008D
:1004F000E800002040EA010310B59B070FD1042A51
:100500000DD310C808C9121F9C42F8D020BA19BADE
:10051000884201D9012010BD4FF0FF3010BD1AB143
:10052000D30703D0521C07E0002010BD10F8013B98
:1005300011F8014B1B1B07D110F8013B11F8014BBF
:100540001B1B01D1921EF1D1184610BD02F0FF0312
:1005500043EA032242EA024200F0F0BB4FF00002FD
:1005600000B5134694469646203922BFA0E80C50A9
:10057000A0E80C50B1F12001BFF4F7AF090728BF84
:10058000A0E80C5048BF0CC05DF804EB890028BF00
:1005900040F8042B08BF704748BF20F8022B11F029
:1005A000804F18BF00F8012B704700004FF0013C4E
:1005B00050F8042B51F8043B9A4221D1A2EB0C03D2
:1005C000934313EACC1317D150F8042B51F8043B92
:1005D0009A4215D1A2EB0C03934313EACC130BD12F
:1005E00050F8042B51F8043B9A4209D1A2EB0C03BA
:1005F000934313EACC13DBD04FF00000704700BFE9
:10060000D01A01BAB1FA81F101F0180122FA01F011
:10061000CB40C1F12001DBB2C0B2C01A2CFA01F309
:10062000D11A914311EAC311E6D170477047704760
:100630007047704700487047B006002053EA020C2C
:1006400000F069802DE9F04B4FF00006002B1FBF32
:10065000B3FA83F503FA05F424FA05F65E4012BFF7
:100660001643B2FA82F502FA05F4C5F120051EBF61
:1006700022FA05FC44EA0C04203556EA044C4FEA01
:10068000144418BF641C4FF000084FF0000990425A
:1006900071EB030C39D3002919BFB1FA81F701FAC4
:1006A00007F6B0FA80F700FA07F6C7F120071EBF79
:1006B00020FA07FC46EA0C062037B6FBF4FCA7EB51
:1006C0000507103F07F01F0BCBF120060CFA0BFBC0
:1006D0002CFA06F644BFB3460026202FA4BF5E4680
:1006E0004FF0000B5BEA060C08BF4FF0010B19EB53
:1006F0000B09ABFB027C48EB0608C01B06FB02CCD7
:100700000BFB03CC71EB0C01C1E70B4602464146E3
:100710004846BDE8F08B13B54FF000004FF00001E4
:10072000AFF30080BDE81C4070472DE9F0470D464F
:1007300099469246044600F124080168880604D5CB
:10074000E06921F01001216000E00120A84201DDF4
:10075000471B00E00027A1697A1902EB0900081A7B
:10076000A0612078C00602D42046AFF300800026A6
:1007700008E0D4E901211AF806009047206A401CDD
:10078000761C20624E45F4DB2078C0060AD5204650
:10079000AFF3008006E0D4E9012130209047206AC1
:1007A000401C2062381EA7F10107F4DC07E0D4E901
:1007B000012118F805009047206A401C2062281E7D
:1007C000A5F10105F3DC2046AFF300802078000698
:1007D00002D50220BDE8F0870120FBE770472DE934
:1007E000FF4F0C461E464FF0FF378BB0D2E9000199
:1007F000DDF860800A908A46C1F30A5505B93D4686
:10080000002108464FF00000BAF1000F00F440004C
:1008100005DA00EB80004FF4400101EA50004FEA96
:100820009059B9F1010F00DDB9460A9850EA4A0023
:100830000ED044F61050A5F2FF3545432F14B8F101
:10084000000F1ED07542291E1EDDC9F100021CE0FA
:10085000B8F1010F4FF0000001D0302103E0F24366
:1008600005E02154401CB042FBDB30460022002151
:1008700021540B99C1F80880C1E900200FB0BDE8F0
:10088000F08FBD1B6D1CDEE74A4600DA694206A800
:1008900000F05AFB06AB93E8070003AB83E80700C0
:1008A00050460A9900F01CFC8DE80700A0F50050A6
:1008B0001F3800900398002D09DD42F21F014A46BF
:1008C000084403A90390684600F07BFE08E0A0F509
:1008D00000504A461F3803A90390684600F085FE81
:1008E0008DE807000004000C03D04FF0FF304108F2
:1008F00000E01046B8F1000F03D000220092154628
:100900001EE0751E05D400F049FA303262556D1EA6
:10091000F9D5B3460122084302D000227F1C04E02F
:100920002078302801D100227F1E002A099786D026
:100930001DE0112D07DA00F031FA303262556D1CDE
:1009400050EA0102F5D1084302D00098C8B10EE088
:100950000021681E05E0235C625C63542254401E43
:10096000491C8142F7DBAB46A81B401E09900020C2
:1009700004F80B000B98099AC0F80880C0E9002B16
:100980007CE711264FF0000859E72DE9F04F884623
:100990000446D21D22F0070191B0D1E90001CDE952
:1009A0000A0105F024FC02460B98C00F01D02D204F
:1009B00007E02068810701D52B2002E0202101EA11
:1009C000C000032A099001D0072A05DB03464146EF
:1009D000204600F029FA0BE12078800601D5E06975
:1009E00000E00620B8F1650F814606D0B8F1660F29
:1009F00018D0B8F1670F70D131E00020B9F1110FB4
:100A0000009001DB112301E009F101030AAA01A909
:100A10000CA8FFF7E4FEDDE90C70002609F10105E2
:100A2000834647E001204B4600904FF000470AAA5A
:100A300001A90CA8FFF7D3FEDDE90DB00C995D46C6
:100A4000002610B909F101000D18B9EB050003D417
:100A5000C0F1FF3609F10105A5EB09002BE0B9F162
:100A6000010F01DA4FF001090020B9F1110F0090D8
:100A7000484601DD112300E003460AAA01A90CA89B
:100A8000FFF7ADFEDDE90C704D4600268346207869
:100A900000070AD4AB4500DA5D4601A8012D04DD4C
:100AA000411911F8011C302907D04F4502DA17F11E
:100AB000040F04DA012082460FE06D1EEEE7002FDE
:100AC00002DCED1B3E4403E0781CA84200DD7D1CE7
:100AD000B81B00F1010A4FF000472078000703D44B
:100AE000AA4501DB4FF0FF3A0021B7F1004F0DF1AD
:100AF00043088DF8431024D002202B23002F01DA65
:100B00007F422D230A21021EA0F1010000DC5FB10B
:100B100097FBF1FC97FBF1F201FB1C7C17460CF1F3
:100B2000300C08F801CDEEE7A8F101000370218830
:100B3000090501D5452100E06521A0F1010800F873
:100B4000011C09980FA9A1EB0807FF1D00B10120A6
:100B5000411901EBEA70A1693844081A401EA061EE
:100B60002078C00602D42046AFF30080099828B14F
:100B7000D4E901219047206A401C20622078C006F9
:100B800022D52046AFF300801EE0002E04DBB345E3
:100B900002DD01A8805D00E03020D4E9012190470A
:100BA000206A401C2062761CAAF101005FEA000A5C
:100BB0000AD100F0EFF8C0680168405CD4E9012177
:100BC0009047206A401C2062281EA5F10105DCDC4C
:100BD00007E0D4E9012118F8010B9047206A401C76
:100BE0002062381EA7F10107F3DC2046AFF3008036
:100BF000032011B043E6000001694A1C0261087835
:100C0000704700B58FB0CDE901310021059105494C
:100C10007944CDE9031011466846FFF7BBFB0FB0DE
:100C200000BD0000E5FFFFFF0A6802F8010B0A6043
:100C3000704710B5436913B1AFF3008001E0FFF7CF
:100C400043FB012010BD127800F124010A7000223C
:100C50004A700122EDE711684FF0FF32E9E700002A
:100C6000074B70B50D467B44FFF7CBFF0446284683
:100C700000F0D8F910B14FF0FF3070BD204670BDC4
:100C8000B36200002DE9F04791460F4680460446C6
:100C9000002614F8015B2DB100F074F80068405D87
:100CA000C007F6D12B2D02D02D2D18D0641E4A4638
:100CB0003946204600F0F8F827B13968A14201D141
:100CC000C7F800804FF0020471050BD540420028A0
:100CD00003DDFFF7AFFC0460A007BDE8F08746F432
:100CE0008066E4E70028F8DAFFF7A4FC04606FF000
:100CF0000040F2E72DE9F04115460E46040002D10E
:100D00002C6804B90BA4204600F0A0F90444207814
:100D100070B127463146384600F088F904442078FF
:100D200010B1002004F8010B38462C60BDE8F081BA
:100D30000027F9E7000000004FF000020429C0F08E
:100D4000128010F0030C3FF40BACCCF1040CBCF19E
:100D5000020F18BF00F8012BA8BF20F8022BA1EB4F
:100D60000C01FFF7FDBB5FEAC17C24BF00F8012B3B
:100D700000F8012B48BF00F8012B7047004870476E
:100D8000B006002010B500F005F8001D10BD00BF32
:100D9000D977000000487047D006002030B5B0F188
:100DA0000A024FEA900E71F100034EEA817EB0EB29
:100DB0000E0061EB91014FEA101E4EEA017E10EB2E
:100DC0000E0041EB11114FEA102E4EEA016E10EBAE
:100DD0000E0041EB11214FEA104E4EEA014E10EB8E
:100DE0000E0041EB1141401841F100014FEAD000E3
:100DF00040EA41704FEAD10110EB80054FEA8104CF
:100E000044EA907444EB01046D1944EB0404521B52
:100E1000A3414FF0000348BF0A3200D530BD401C4B
:100E200041F1000130BD00002DE9F0411F460446AC
:100E300003260168072A01F4006004DB08B116A547
:100E400005E016A503E008B115A500E015A521F001
:100E500010002060A069C01EA0610FB1401EA061FB
:100E60002046AFF300804FB1D4E9012138469047C6
:100E7000206A401C2062C01C206206E0206AFAE75B
:100E8000D4E9012115F8010B9047761EF8D22046CF
:100E9000AFF30080BDE8F0814E414E006E616E0000
:100EA000494E4600696E66002DE9F05F82461546A0
:100EB0008B4600270AF10104B9460078302801D09A
:100EC0009DB113E014F8010B0127782803D05828AE
:100ED00001D045B10AE00DB1102D07D1002714F85B
:100EE000010B102502E0082500E00A250026B04687
:100EF0000EE005FB080005FB06F101271FFA80F84C
:100F000001EB1046B6F5803F00D3B94614F8010B4B
:100F1000294600F0CEF80028EBDABBF1000F05D02F
:100F20000FB1641E00E05446CBF80040B9F1000F49
:100F300006D0FFF77FFB02210160C81EBDE8F09FCD
:100F400048EA0640FAE700002DE9F04781461646D8
:100F50008AB0334878440DC88DE80D003048784495
:100F6000801C03AC0DC884E80D0041F69B3008449A
:100F7000372190FBF1F290FBF1F5A5F1800501FB23
:100F800012041B3C02D56442012000E00020DFF87F
:100F900090A080460027FA44AAF1BE0A0DE0E007BF
:100FA00009D03246684607EB47010AEB810100F0A1
:100FB0001CFB8DE8070064107F1C002CEFD1184F3C
:100FC0007F44AC3F18E0E80714D007EB04100DF1A4
:100FD000180A90E80E008AE80E00C068F04201D1BD
:100FE00098190890324606A903A800F0FEFA03AB50
:100FF00083E807006D10641C002DE4D13246694679
:10100000B8F1000F03A802D000F0DBFA01E000F015
:10101000ECFAC9E90001C9F808200AB0BDE8F08778
:1010200064A30000007B00F08000704730B50346E9
:101030001D781DB10A4603E0AC4201D1181A30BD3B
:1010400012F8014B002CF7D15B1CF1E730B50346D9
:101050001D783DB10A4612F8014B1CB1AC42FAD1E1
:101060005B1CF5E7181A30BD7546FFF787FEAE46E4
:1010700005006946534620F00700854618B020B5A4
:10108000FFF7CAF8BDE820404FF000064FF0000718
:101090004FF000084FF0000B21F00701AC46ACE820
:1010A000C009ACE8C009ACE8C009ACE8C0098D468D
:1010B00070473A2800D2303820F02002412A01D36C
:1010C000A2F13700884201D34FF0FF30704710B5CE
:1010D0000446AFF300802046BDE81040FFF788B813
:1010E0005FEA400C08BF91F0000F4FEA8C234FEAF3
:1010F000C12243EA51514FEA1C5018BF00F5F0409D
:101100004FEA300018BF41F000415FEA6C5C00F02C
:101110002980BCF1FF3F08BF40F080407047130CAE
:1011200006BF12044FF0100C4FF0000C130E04BF5A
:1011300012020CF1080C130F04BF12010CF1040C85
:10114000930F04BF92000CF1020CD30F04BF5200A6
:101150000CF1010C11464FF00002A0F11F00A0EBB2
:101160000C00704711F0004F08BF704731F000418C
:101170003FF4D5AF0B0C06BF09044FF0100C4FF035
:10118000000C0B0E04BF09020CF1080C0B0F04BF7E
:1011900009010CF1040C8B0F04BF89000CF1020C47
:1011A000CB0F04BF49000CF1010CCCF12003A0EBE4
:1011B0000C0022FA03F302FA0CF241EA030100F1F7
:1011C0000100704720F07F4C80EA030023F07F4746
:1011D000ACEB070303F57C5300F0004003F1FF0381
:1011E0002DE980494FEA154B09B44FEA144325EA2B
:1011F0000B4E24EA03480FF2042606EB1327490896
:101200003E785FEA320203FB0667C7F5000707FB7B
:1012100006F64FEA54374FEAD64606F1020607FBB8
:10122000066CCCF1005C4FEA1C472CEA074C07FB2C
:1012300006F40CFB06F504EB15464FEA961634BF90
:1012400000204FF000404FEAD13706FB07FC4FEA81
:101250001C4C0CFB0BF7D21B03FB0CF761EB0701DB
:101260000CFB0EF7B0EB074072EB17420CFB08F7D4
:1012700034BFA2EB0742B2EB074261EB17414FEAE2
:101280000C444FEA910706FB07FC4FEA1C4C0CFB91
:101290000BF7B0EBC74072EB573203FB0CF734BFD0
:1012A000A2EBC742B2EBC74261EB57310CFB0EF722
:1012B000B0EBC70072EB57720CFB08F734BFA2EB20
:1012C000C702B2EBC70261EB5771039F4FEA81611E
:1012D00041EA921104EBCC044FEAD1374FEA826223
:1012E00006FB07FC42EA90124FEA80604FEA1C4C72
:1012F0000CFB0BF7D21B03FB0CF761EB07010CFB9C
:101300000EF7B0EB074072EB17420CFB08F734BF47
:10131000A2EB0742B2EB074261EB17414FEA8C5553
:101320004FEA910704EB9C2406FB07FC4FEA1C4C98
:101330000CFB0BF7B0EBC74072EB573203FB0CF71B
:1013400034BFA2EBC742B2EBC74261EB57310CFB93
:101350000EF7B0EBC70072EB57720CFB08F734BF07
:10136000A2EBC702B2EBC70261EB577115EB4C253C
:101370004FEA816141EA92114FEA82624FEAD13726
:1013800042EA901206FB07FC44F100044FEA806039
:101390004FEA1C4C0CFB0BF7D21B03FB0CF761EB69
:1013A00007010CFB0EF7B0EB074072EB17420CFB8A
:1013B00008F734BFA2EB0742B2EB074261EB1741DB
:1013C00015EB1C154FEA813141EA92414FEA823216
:1013D00042EA90424FEA80304FEA0C7644F1000432
:1013E00048EA03434EEA0B484FF0000EB2EB080CFC
:1013F00071EB030724BF624639464EEB0E0E4FF0E9
:10140000000B0018524149414BEB0B0BB2EB080C9F
:1014100071EB03077BF1000B24BF624639464EEBAC
:101420000E0E4FF0000B0018524149414BEB0B0BD5
:10143000B2EB080C71EB03077BF1000B24BF624693
:1014400039464EEB0E0E51EA020718BF46F0010670
:1014500016EB0E7655F1000254F1000103D5BDE8FC
:101460008901BDE80088BDE88901BDE80048B619DA
:10147000524141EB0101A3F10103704780807F7E5F
:101480007D7C7B7A797877767675747372717170FA
:101490006F6E6E6D6C6C6B6A6A69686867666665AC
:1014A0006464636362616160605F5F5E5E5D5D5C3A
:1014B0005C5B5B5A5A5959585857575656555555AB
:1014C0005454535352525251515050504F4F4F4E0B
:1014D0004E4D4D4D4C4C4C4B4B4B4A4A4A49494959
:1014E000484848474747474646464545454444449B
:1014F000444343434342424242414141002B26D4AC
:10150000770021D01CB54FEA370703B44FF0100025
:101510004FF010014FF000000FBCBDE810400BF180
:10152000010BBBF1010F08BF5FEA170722BF12F1E1
:10153000010211F101014FF0004143F1000300F0FD
:10154000004043EA00007047F9D35708DAE746EA5B
:10155000064613F1400F4FEA16461FDD13F1200F28
:10156000DFBF16430A46002120335B42C8D0C3F1D7
:10157000200746EA064602FA07F74FEA164646EA09
:101580000706C3F1200722FA03F201FA07F721FA4E
:1015900003F14FF0000342EA0702B1E746EA020610
:1015A00046EA06464FEA164646EA0106BCBF46EA48
:1015B0000646360C4FF000034FF000024FF00001DA
:1015C0009EE72DE9C048934630B491E8380007C83B
:1015D00031EA400C48BF34EA430C03D5FFF7F2FD73
:1015E000FFF78CFFF0BCBDE800882DE9C0489346AA
:1015F00030B491E8380007C810F0804F08BF13F0EE
:10160000804F03D100F005F8FFF778FFF0BCBDE88C
:10161000008820F07F4780EA030023F07F4C07EB2F
:101620000C03A3F57C5300F00040A3F1FE0392F0FD
:10163000000F00F0B38095F0000F00F077802DE9E7
:1016400001494FEA11404FEA144621EA004800FBE5
:1016500006FC24EA064708FB06F607FB08F800FB31
:1016600007F718EB06484CEB164C4FEA124B18EBF9
:1016700007484FEA15464CEB174022EA0B4E0BFB8E
:1016800006FC25EA06470EFB06F607FB0EFE0BFBE3
:1016900007F71EEB064E4CEB164C4FF000061EEB08
:1016A000074E4CEB174B18EB0B0840F1000018EB02
:1016B0000E0B58EB000840F100008F1A4FF00001AC
:1016C0003CBFC943661B14BFB5EB040C00213CBFF3
:1016D000C943F61B4FEA17444EEA8E0E27EA04452B
:1016E0004FEA1C4704FB07622CEA074C05FB07F78F
:1016F0000CFB05F604FB0CFC16EB074642EB17420D
:1017000016EB0C4642EB1C421BEB060658EB0202A2
:10171000414146EA9E0601D5BDE80189B61952410C
:1017200041EB0101A3F10103BDE801894FEA144532
:101730004FEA114724EA054621EA074C05FB07F466
:1017400006FB07F70CFB06F105FB0CFC11EB074150
:1017500044EB17444FEA124711EB0C4144EB1C4495
:1017600022EA074C05FB07F206FB07F70CFB06F61F
:1017700005FB0CFC16EB074642EB174216EB0C463A
:1017800042EB1C456A1854F1000148BF7047B61976
:10179000524141EB0101A3F10103704795F0000FA5
:1017A00037D04FEA11424FEA144721EA024624EAB1
:1017B000074C02FB07F106FB07F70CFB06F402FBE4
:1017C0000CFC14EB074441EB17414FEA154714EBAF
:1017D0000C4441EB1C4125EA074C02FB07F506FBD4
:1017E00007F70CFB06F602FB0CFC16EB074645EB75
:1017F000174516EB0C4645EB1C42121951F100013E
:1018000048BF7047B619524141EB0101A3F10103F2
:1018100070474FEA14454FEA114724EA054621EA8A
:10182000074C05FB07F106FB07F70CFB06F24FF030
:10183000000605FB0CFC12EB074241EB174112EBD3
:101840000C4251EB1C4148BF7047921841EB01011B
:10185000A3F101037047FEE7014800F0ABB90000B7
:10186000D8040020014800F0A5B900001C050020A4
:1018700030B590F840500124AC40C56B6C600468F2
:1018800063604368102B036803D099600068C260EE
:1018900030BD9A600068C16030BD704772B6FEE727
:1018A00070B5040003D094F8200010B104E00120CA
:1018B00070BD204600F082F82068016841F0010107
:1018C000016000F029FC0546052604E000F024FC38
:1018D000401B0A2811D820684068C007F6D020684D
:1018E000016821F00201016000F016FC05460BE0E2
:1018F00000F012FC401B0A2806D9606A40F4003050
:10190000606284F82060D2E7206840688007EFD4E6
:10191000207E0128206801683DD021F0800101600F
:10192000607E01282068016838D021F04001016004
:10193000A07E01282068016833D021F020010160D9
:10194000E07E0128206801682ED041F0100101607E
:10195000207F01282068016829D021F0080101605A
:10196000607F01282068016824D021F00401016013
:10197000D4E902010843D4E9041211430843616821
:10198000491E08432168C86100206062012084F874
:101990002000002070BD41F08001C0E741F040010F
:1019A000C5E741F02001CAE721F01001CFE741F07F
:1019B0000801D4E741F00401D9E7000010B586B072
:1019C000002100910191029103910068174988421A
:1019D00029D11748C16941F00071C161C16901F0A5
:1019E00000710491816941F0200181618069114C8D
:1019F00000F020000490012000906946204600F08D
:101A000085FA022103200091019103906946204646
:101A100000F07CFA0848416821F4C04141F0E061DF
:101A200041F4C041416006B010BD000000640040B8
:101A300000100240001401400000014010B590F871
:101A400021100022022905D00421816380F8202082
:101A5000012010BD01680B6823F00E030B600168C4
:101A60000B6823F001030B6090F84030C46B012138
:101A700001FA03F3636080F8211080F820201046FB
:101A800010BD00002DE9F05F90F82110002402291C
:101A900003D004218163012485E001680A6822F0F3
:101AA0000E020A6001680A6822F001020A603F4ED5
:101AB0003E4FB215DFF8F4C0DFF8F090DFF8ECA08D
:101AC000DFF8E8B0DFF8E4E00168783F13011502C1
:101AD000ACF1640CA9F15009AAF13C0AABF1280B56
:101AE000AEF1140E4FF48018B14227D9B9420ED08E
:101AF000614512D049451DD0514518D0594518D0DF
:101B0000714501D1424615E0294EB14201D1012271
:101B100010E0274E1436B14201D110220AE0244EC3
:101B20002836B14206D0224A3C32914201D11A46AF
:101B300000E02A461E49091F0A602BE0B94213D073
:101B4000614517D0494522D051451DD059451DD07A
:101B5000714501D142461AE0B14202D14FF0807284
:101B600015E0134EB14201D1012210E0104E14369F
:101B7000B14201D110220AE00D4E2836B14206D002
:101B80000B4A3C32914201D11A4600E02A460749ED
:101B900080394A60012180F82110002180F820104E
:101BA000416B01B188472046BDE8F09F80000240AC
:101BB000080402402DE9F05FC16B0A6801680B68F8
:101BC000046C4FF0040808FA04F8844D844E854FE5
:101BD000DFF814C2DFF81492DFF814A2DFF814B2B1
:101BE000DFF814E218EA020F65D05FEA437862D5A5
:101BF0000A68920603D40A6822F004020A60DFF839
:101C0000F0814FF48062016808F114081301140296
:101C1000414524D9A9420DD0B1420FD0B9421AD0C2
:101C2000614515D0494515D0514501D1120312E047
:101C3000594501D104220EE0714501D140220AE04C
:101C40006D4D1435A94206D06B4A2832914201D11C
:101C50001A4600E022466749091F0A6029E0A942A6
:101C600013D0B14215D0B94220D061451BD04945AF
:101C70001BD0514502D14FF4800217E0414502D1FB
:101C80004FF0806212E0594501D104220EE0714507
:101C900001D140220AE0584D1435A94206D0564AD7
:101CA0002832914201D11A4600E022464B490839B8
:101CB0004A60C16A71E04FF0020808FA04F818EAB5
:101CC000020F70D05FEA83786DD50A68920606D459
:101CD0000A6822F00A020A60012180F82110DFF868
:101CE00010814FF40072016808F114081301140206
:101CF000414524D9A9420DD0B1420FD0B9421AD0E2
:101D0000614515D0494515D0514501D1120312E066
:101D1000594501D102220EE0714501D120220AE08D
:101D2000354D1435A94206D0334A2832914201D1AB
:101D30001A4600E022462F49091F0A6029E0A942FD
:101D400013D0B14215D0B94220D061451BD04945CE
:101D50001BD0514502D14FF4001217E0414502D18A
:101D60004FF0007212E0594501D102220EE0714598
:101D700001D120220AE0204D1435A94206D01E4A86
:101D80002832914201D11A4600E02246134908390F
:101D90004A60002180F82010816A00291CD0BDE82B
:101DA000F05F0847FFE70825A540154214D01A0741
:101DB00012D50A6822F00E020A6090F84020C36B28
:101DC000012101FA02F25A60816380F8211000219A
:101DD00080F82010016BE0E7BDE8F09F08000240AA
:101DE0001C00024030000240440002405800024003
:101DF0006C000240080402401C04024030B560B18F
:101E00001A4B026814219A4209D2194B1344B3FBAE
:101E1000F1F18900016417490AE0012030BD134B3C
:101E20005B421344B3FBF1F1890001640F490839A7
:101E3000C163022180F82110136843F6F0718B43CF
:101E4000F0E901142143D0E902452C432143046900
:101E500021434469214384692143194311600021CE
:101E60004163012242770177084630BD08040240F1
:101E7000F8FFFDBF0000024070B5044690F8200056
:101E8000002501280CD0012084F8200094F821605E
:101E90000020012E06D084F820000225284670BDBF
:101EA000022070BD022684F82160A06320680668C5
:101EB00026F0010606602046FFF7DAFCE06A0028FB
:101EC0002068016802D041F00E0106E021F0040113
:101ED00001602068016841F00A0101602068016822
:101EE00041F001010160D9E770B5044600F014F932
:101EF0000546601C02D004480078044400F00CF948
:101F0000401BA042FAD370BD480000202DE9F84FD5
:101F1000DFF8C8910024A9F1040B23460F2709F12B
:101F2000040AABF1040ED1E00125A54006EA050242
:101F3000AA4276D1DFF8A8C14E68A6EB0C08664528
:101F40002BD00DDC032E34D005DC36B3012E19D096
:101F5000022E2FD11BE0112E16D0122E2AD119E0FD
:101F6000B8F5881F19D006DCB8F5803F15D0B8F554
:101F7000801F1FD111E0B8F5001F0ED0B8F5041F67
:101F800018D10AE0CB6815E0CB681B1D12E0CB68C6
:101F900008330FE0CB680C330CE08B682BB1012BBE
:101FA0004FF0080303D0456104E0042302E005611B
:101FB00000E00023FF2A01D8064601E000F10406F4
:101FC0004FEA840501D9A5F12005D6F8008007FA6B
:101FD00005FC28EA0C0803FA05F548EA0508C6F8E6
:101FE00000804D68ED0070D53E4DAE6946F00106AB
:101FF000AE61AD6924F0030605F0010500953A4D88
:1020000006EB050CDCF80850A607360F07FA06F8B1
:1020100025EA0805DFF8D480404503D14FF00008D9
:1020200025E052E0DFF8C880404502D14FF00108BA
:102030001DE0DFF8C080404502D14FF0020816E0F5
:10204000DFF8B480404502D14FF003080FE0DFF81D
:10205000AC80404502D14FF0040808E0DFF8A080D2
:10206000404502D14FF0050801E04FF0060808FA9C
:1020700006F848EA0508CCF808804D68D9F80060F1
:10208000ED024D4601D5164300E096432E604D68A3
:10209000DAF80060AD02554601D5164300E09643DC
:1020A0002E604D68DBF80060AD035D4601D5164338
:1020B00000E096432E604D68DEF80060ED03754643
:1020C00001D5164300E096432E60641C0A6816464C
:1020D000E2407FF429AFBDE8F88F0000080401401A
:1020E00000001110001002400000014000080140F3
:1020F000000C014000100140001401400018014094
:10210000001C01408068084000D0012070470AB1DF
:10211000016170470904FBE70148806870470000CF
:102120004800002070B5040025D094F83D0000253B
:1021300020B984F83C50204600F0B8F8242084F8F8
:102140003D002068016821F00101016020680168FC
:1021500041F4004101602068016821F40041016000
:1021600000F0D8FA4D4A6168914201D84C4900E02C
:102170004C49884201D2012070BD4B492368B0FB15
:10218000F1F15E6826F03F060E435E60636893429D
:1021900006D94FF4967359434FF47A73B1FBF3F1B8
:1021A0002368491C1E6A26F03F06314319626168A4
:1021B000914210D84900401EB0FBF1F2521CC2F30C
:1021C0000B02042A01D2042022E0B0FBF1F0401CF3
:1021D000C0F30B001CE0A268F2B301EBC10303EBF8
:1021E0000116431EB3FBF6F35B1C43F480431B054F
:1021F00049D092B301EBC10202EB0111401EB0FBCA
:10220000F1F0401CC0F30B0040F4804040F400406B
:102210002168CA694CF6FF739A431043C861D4E938
:10222000071001432068026822F0C00211430160D8
:10223000D4E9030101432068826848F2FF339A43DE
:1022400011438160D4E9050108432168CA6822F07E
:10225000FF021043C86001E00EE016E0206801684C
:1022600041F0010101602564202084F83D002563D0
:1022700084F83E50002070BD01EB4106431EB3FBC5
:10228000F6F35B1CB3E70120C2E701EB4101401EFE
:10229000B0FBF1F0401CC0F30B00B7E7A0860100D3
:1022A00080841E0000093D0040420F0010B586B03A
:1022B0000021009101910291039100680F49884229
:1022C0001AD10F4CA06940F00800A061A0696946CE
:1022D00000F008000490C02000901220019003201C
:1022E00003900848FFF712FEE06940F40010E06137
:1022F000E06900F40010049006B010BD00540040E6
:1023000000100240000C014002488168027811442C
:102310008160704748000020074810B5016841F00F
:1023200010010160032000F075F80F2000F006F89E
:1023300000F024F8002010BD0020024070B50D4DC3
:1023400004464FF47A712878B1FBF0F00A49096825
:10235000B1FBF0F000F075FD48B9102C07D2002257
:102360002146501E00F036F800206C6070BD012040
:1023700070BD000048000020540000200C4808B543
:10238000816941F001018161816901F001010091E0
:10239000C16941F08051C161C06900F08050009076
:1023A0000448416821F0E06141F08061416008BD6E
:1023B0000010024000000140002809DB00F01F026D
:1023C000012191404009800000F1E020C0F8001197
:1023D00070470000F0B40E4B1B680C46C3F3022399
:1023E000C3F10705042D00D90425191D072901D2C1
:1023F000002300E0DB1E012606FA05F1491E2140FC
:1024000099409E40761E16403143F0BC03F003BF56
:102410000CED00E0064900F0070208684FF6FF03E4
:10242000184040EA0220034A104308607047000049
:102430000CED00E00000FA05014901200862704738
:1024400000000E4210B501460020284C04292FD070
:102450000BDC012930D0022929D100F06BF9616829
:10246000C1F38131491C49001FE0082920D01029FF
:102470001DD161682268D20119D51D48C1F383427C
:10248000C903805C0AD56168194AC1F34041921EB4
:10249000515C184AB2FBF1F1484301E01649484348
:1024A0006168490203D440000321B0FBF1F010BD84
:1024B000BDE8104000F04EB9226AC2F301210129A3
:1024C00003D1920701D5C80310BD022905D1626A64
:1024D000920702D549F6404010BD0329FCD121687E
:1024E0008903F9D54FF2244010BD000000100240CE
:1024F0007295000800127A0000093D002DE9F843AA
:1025000005460078354CC00754D0E0690026C0006D
:1025100008D4E06940F08050E061E069012600F0F5
:10252000805000902E480168C90512D40168804689
:1025300041F480710160FFF7EFFD074605E000BF41
:10254000FFF7EAFDC01B642823D8D8F80000C005B7
:10255000F6D5206A10F4407021D0A98801F44071AA
:1025600081421CD0206A1F49012220F440700A6079
:1025700000220A602062C00711D0FFF7CDFD074698
:1025800041F2883808E000BFFFF7C6FDC11B414596
:1025900002D90320BDE8F883206A8007F4D5206AB9
:1025A000696820F44070084320621EB1E06920F0A1
:1025B0008050E0612878800705D56068A96820F41C
:1025C0004040084360602878C00605D560686969A6
:1025D00020F48000084360600020DBE70010024028
:1025E00000700040400442422DE9F0470F460500CC
:1025F00061D0434E306800F00700B84209D230681D
:1026000020F0070038433060306800F00700B8421F
:1026100051D128683B4C810712D5400703D560682B
:1026200040F4E06060602878000703D5606840F4FB
:10263000605060606068A96820F0F0000843606046
:102640002878C00728D06868012810D0216802289F
:1026500010D0890700292EDA616821F003010143B7
:102660006160FFF759FD804641F288390DE021682D
:102670008903EFE78901EDE7FFF74EFDA0EB0801C5
:10268000494502D90320BDE8F0876068696800F019
:102690000C00B0EB810FEFD1306800F00700B842BA
:1026A0000BD9306820F0070038433060306800F004
:1026B0000700B84201D00120E5E72878400705D59A
:1026C0006068E96820F4E0600843606028780007EB
:1026D00006D56068296920F4605040EAC100606056
:1026E00000F038F86168084AC1F30311515CC84032
:1026F0000649086006480068FFF720FE0020C2E790
:102700000020024000100240829500085400002082
:102710004C0000200448054900684968044AC1F398
:102720000221515CC8407047540000200010024054
:10273000929500080448054900684968044AC1F3B5
:10274000C221515CC8407047540000200010024074
:10275000929500080E4A51680E4801F00C03042BB4
:1027600011D0082B0FD10C48C1F38343C903C05CBF
:102770000AD55168084AC1F34041921E515C054A8E
:102780005043B0FBF1F070470449484370470000E4
:102790000010024000127A006095000800093D0018
:1027A0002DE9F84F040070D02078C04DC00749D003
:1027B0006868C0F38100012807D06868C0F3810011
:1027C000022809D16868C00306D52868800339D576
:1027D00060680028E7D035E06068B0F5803F0BD036
:1027E00010B1B0F5A02F11D0286820F480302860F7
:1027F000286820F4802002E0286840F480302860B7
:10280000606890B1FFF788FC06460AE0286840F44B
:1028100080202860F0E700BFFFF77EFC801B642863
:1028200073D828688003F7D50CE0FFF775FC0646DF
:1028300005E000BFFFF770FC801B6428F0D8286813
:102840008003F7D420789A4E80074FF001094FF0AB
:10285000000839D5686810F00C0F07D06868C0F31D
:102860008100022809D16868C00306D4286880075F
:1028700014D52069012808D110E02069B0B1C6F84C
:102880000090FFF749FC074605E00AE1FFF744FC2A
:10289000C01B0228C4D828688007F7D5286861695A
:1028A00020F0F80040EAC10028600DE0C6F8008082
:1028B000FFF732FC074604E0FFF72EFCC01B02289E
:1028C00023D828688007F7D4207800072CD57948CA
:1028D000A169D9B1C0F80090FFF71EFC074604E0DB
:1028E000FFF71AFCC01B02280FD8686A8007F7D5CB
:1028F00071484FF4FA510068B0FBF1F0009000BF4E
:102900000098411E0091FAD20EE080E0C0F80080ED
:10291000FFF702FC074604E0FFF7FEFBC01B02289E
:1029200075D8686A8007F7D42078400760D5E869D1
:102930000027C00008D4E86940F08050E861E869E9
:10294000012700F0805000905C480168C90513D44D
:102950000168834641F480710160FFF7DDFB824628
:1029600006E000BFFFF7D8FBA0EB0A0064284ED8B2
:10297000DBF80000C005F5D5E06801280AD008B1F1
:10298000052813D0286A20F001002862286A20F068
:10299000040002E0286A40F001002862E06841F289
:1029A000883B98B1FFF7B8FB82460BE0286A40F0FD
:1029B00004002862EEE700BFFFF7AEFBA0EB0A01C0
:1029C00059455AD8286A8007F6D50CE0FFF7A4FBD2
:1029D000824605E0FFF7A0FBA0EB0A0159454CD861
:1029E000286A8007F6D41FB1E86920F08050E861BA
:1029F000E06988B36968C1F38101022944D00228E3
:102A0000C6F8608004D0FFF787FB044638E034E066
:102A1000FFF782FB074604E0FFF77EFBC01B02289E
:102A20002BD828688001F7D4206AB0F5803F05D103
:102A30006868A16820F4003008436860D4E90801A0
:102A40000843696821F4741108436860C6F860900F
:102A5000FFF762FB044606E025E000BFFFF75CFBE2
:102A6000001B022809D828688001F7D51BE000BFA9
:102A7000FFF752FB001B022802D90320BDE8F88FA4
:102A800028688001F4D40EE00128F7D06868226A33
:102A900000F48031914204D1616A00F470108842E0
:102AA00001D00120EAE70020E8E700000010024022
:102AB0000000424280044242540000200070004066
:102AC00070B5040003D0607C002610B105E0012041
:102AD00070BD2674204600F03DF802206074204648
:102AE00000F052F8042550BB204602F002FC30BB37
:102AF0002068416821F007014160A06820B11448B6
:102B0000016821F0010101601148001F0168A268FD
:102B100021F46071114301606068411C04D10120FF
:102B2000FFF790FC58B1401E2268C0F3034191604A
:102B3000216880B2C860204602F0F6FB08B16574D7
:102B4000C5E7E67301206073A0736074002070BD58
:102B5000306C004008B50068084988420DD1FFF785
:102B60006BFC0748C16941F00061C161C06905495A
:102B700000F0006000900120086008BD00280040BF
:102B8000001002403C04424270B504000AD02068A4
:102B9000416821F008014160FFF7BEFA05464FF495
:102BA0007A7608E0012070BDFFF7B6FA401BB0420C
:102BB00001D9032070BD206840680007F4D50020CB
:102BC00070BD70B5040009D0606A002540B1256170
:102BD0006561A56294F8510040B10CE0012070BD20
:102BE0006068B0F5827FF4D0E561F2E784F8505078
:102BF000204600F03FF8022084F851002068016868
:102C000021F040010160A088218900F4827001F464
:102C100004410843A18901F400610843217C01F0CB
:102C200002010843217D01F001010843218B01F4D9
:102C300000710843217F01F03801084394F8201007
:102C400001F080010843218D01F4005108432168FF
:102C50000860A069042101EA1040216848602068EA
:102C6000C16921F40061C1616565012084F85100EA
:102C7000002070BD00B585B0002100910191029146
:102C800003910068104988421BD11048C16941F482
:102C90008041C161C16901F480410491816941F0C1
:102CA000080181618069694600F0080004904FF4D2
:102CB0002040009002200190032003900448FFF779
:102CC00025F905B000BD00000038004000100240AA
:102CD000000C01402DE9F84F044690F85000002602
:102CE000984615468A4601280CD0012784F8507072
:102CF000FFF712FA814694F85100B346012804D038
:102D000002269AE00220BDE8F88FBAF1000F6FD0DA
:102D1000002D6DD0032084F85100C4F854B0C4F8DD
:102D200030A0A586E586C4F838B0A4F83CB0A4F875
:102D30003EB0C4F844B0C4F840B0A068B0F5004F4D
:102D400009D12068016821F0400101602068016814
:102D500041F48041016020680168490603D401689C
:102D600041F040010160E068B0F5006F606803D099
:102D700058B3012D29D049E008B1012D1FD1206B96
:102D800021680088C86006E020688168890709D545
:102D9000216B0988C160206B801C2063E08E401E7F
:102DA000E0860CE0FFF7B8F9A0EB0901414503D339
:102DB000B8F1FF3F03D006E0B8F1000F03D0E08E7A
:102DC0000028E1D125E0032635E0206B216800785A
:102DD000087306E02068816889070AD5216B0978A5
:102DE0000173206B401C2063E08E401EE0860DE0E6
:102DF0001FE0FFF791F9A0EB0901414503D3B8F1BA
:102E0000FF3F03D0DFE7B8F1000FDCD0E08E0028F1
:102E1000E0D14A464146204602F0A1FA08B12020FE
:102E20006065A06818B92068C16880680090606D0E
:102E300008B1012601E084F8517084F850B03046A2
:102E400061E710B5401EB0F1807F01D3012010BDB5
:102E50004FF0E02460610F21601703F0DCF90020DF
:102E6000A06107202061002010BD7047704710B599
:102E700090F83C20012A22D0012280F83C20CA6828
:102E80008C6822F4407222434C6822F48062224310
:102E90000C6822F4006222430C6922F4805222431F
:102EA0004C6922F400522243C969002322F4804273
:102EB0000A4301684A6480F83C30002010BD0220BB
:102EC00010BD000070B590F83C20012A2CD00124E0
:102ED00080F83C40022280F83D2003685A689D68D3
:102EE00022F070060A6832435A60104B02689A4218
:102EF0000ED00F4B9A420BD0B2F1804F08D00D4B41
:102F00009A4205D00C4B9A4202D00C4B9A4204D103
:102F1000496825F080031943916080F83D40002105
:102F200080F83C10084670BD022070BD002C0140A6
:102F3000003401400004004000080040000C004044
:102F400010B5040003D094F83D0010B107E0012053
:102F500010BD002084F83C00204600F01FF802203D
:102F600084F83D00211D206802F030FE012084F825
:102F7000460084F83E0084F83F0084F8400084F85E
:102F8000410084F8420084F8430084F8440084F847
:102F9000450084F83D00002010BD000008B5224A1D
:102FA00001682248914207D1816941F40061816141
:102FB000806900F4006009E01D4A914208D1C169AE
:102FC00041F00801C161C06900F00800009008BD2F
:102FD000184A914211D1C16941F01001C161C06923
:102FE000002200F0100000900A213620FFF7F2F9CD
:102FF000BDE808403620FFF7DFB90F4A914207D1FC
:10300000C16941F02001C161C06900F02000DDE725
:103010000A4A9142DBD1816941F4005181618069A2
:1030200000F40050D2E70000002C014000100240E4
:10303000000C00400010004000140040003401402B
:1030400090F83D10012901D001207047022180F83D
:103050003D100168CA6842F00102CA6000680E496A
:1030600088420ED00D4988420BD0B0F1804F08D075
:103070000B49884205D00B49884202D00A49884250
:1030800004D1816801F00701062903D0016841F0ED
:103090000101016000207047002C01400034014014
:1030A0000004004000080040000C004070B50446D9
:1030B00090F83C000025012817D0012684F83C60D8
:1030C000022084F83D002068826822F0770222F412
:1030D0007F4282600868502838D00DDC20284FD00D
:1030E00005DC90B3102811D14AE0022070BD3028D1
:1030F00046D040280AD13BE060282FD070280DD060
:10310000B0F5805F03D0B0F5005F12D0012584F8E0
:103110003D60002084F83C00284670BDCB68D1E9B2
:103120000121206802F0A5FD2068816841F0770147
:1031300009E0CB68D1E90121206802F09AFD2068FE
:10314000816841F480418160E1E719E0CA6849681B
:10315000206802F063FE5021206806E0CA684968D2
:10316000206802F06CFE6021206802F08CFDCEE742
:10317000CA684968206802F051FE40212068F4E7DF
:10318000226801461046F0E72DE9F0410D460400A3
:1031900003D094F83D0018B108E00120BDE8F081AB
:1031A000002084F83C00204600F040F8022084F81B
:1031B0003D002068816844F2070291438160211D2F
:1031C000206802F003FD226890689169166A2B68F6
:1031D000AF69034340F20330814341EA0721A86805
:1031E000EF6908434FF6FC418843E96840EA07204D
:1031F000014328692F6A000140EA073008436968E3
:103200006D6926F0220646EA051529439360226877
:10321000906154F8460B0162012004F81F09E07523
:103220002076E0762077A0750020B7E730B585B02E
:1032300000250095019502950395026837493848A5
:10324000384CB2F1804F19D0374B9A4244D1CA69F9
:1032500042F00202CA61CA6902F0020204928A695B
:1032600042F004028A61896901F004010491C021DD
:1032700000916946FEF74AFE05B030BDCA6942F0CA
:103280000102CA61CA6902F0010204928A6942F02D
:1032900004028A618A6902F0040204928A6942F097
:1032A00008028A61896901F0080104914FF4004124
:1032B00000916946FEF72AFE0820CDE9000569461F
:1032C0001A480295FEF722FE606820F4407040F034
:1032D000E06040F480701EE015488242CCD1C8699D
:1032E00040F00400C861C86900F0040004908869D7
:1032F00040F0200088618869694600F02000049051
:103300004FF4405000900B48FEF700FE606840F01C
:10331000E06040F480506060AEE7000000100240C2
:10332000000801400000014000040040000C014082
:103330000008004000140140704770B50446006862
:1033400001694FF00005C943890715D4C168C94315
:10335000890711D4E91E0161012020772068806966
:103360008007204602D0FFF7E7FF04E000F0F8F8FE
:10337000204600F08AF9257720680169C94349078A
:1033800017D4C168C943490713D46FF00401016120
:10339000022020772068806910F4407F204602D008
:1033A000FFF7CAFF04E000F0DBF8204600F06DF9FB
:1033B000257720680169C943090716D4C168C94344
:1033C000090712D46FF008010161042020772068FA
:1033D000C0698007204602D0FFF7AEFF04E000F08E
:1033E000BFF8204600F051F9257720680169C943EC
:1033F000C90617D4C168C943C90613D46FF01001B8
:103400000161082020772068C06910F4407F2046C1
:1034100002D0FFF791FF04E000F0A2F8204600F090
:1034200034F9257720680169C943C90708D1C16803
:10343000C943C90704D1891E0161204600F080F903
:1034400020680169C943090609D4C168C94309064E
:1034500005D46FF0800101612046FFF706FD20686A
:103460000169C943490609D4C168C943490605D45D
:103470006FF040010161204600F0E8F92068016921
:10348000C94389060BD4C168C943890607D46FF0C4
:10349000200101612046BDE87040FFF7E7BC70BD28
:1034A00000B585B000210091019102910391244B58
:1034B0000268244902209A421BD18A6942F04002E4
:1034C0008A618969039001F0400104914FF4D4416D
:1034D000CDE9001069461C48FEF718FD1B484168FD
:1034E00021F0C00141F0E06141F0C001416005B050
:1034F00000BD174B9A420ED18A6942F004028A61DC
:103500008969039001F0040104910F21CDE90010B5
:103510006946104811E0104B9A42E8D18A6942F09E
:1035200010028A618969039001F0100104914FF43F
:103530007071CDE9001069460848FEF7E7FCD6E750
:10354000002C014000100240001801400000014022
:10355000000C004000080140003401400010014010
:10356000704770B5044690F83C0000260D460128CF
:103570000FD0012084F83C006AB1042A1DD0082A2B
:103580002FD00C2A3FD00126002084F83C00304682
:1035900070BD022070BD206802F07EFB206881694A
:1035A00041F0080181612068816921F00401816195
:1035B000206881692A69114311E0206802F09CFBB0
:1035C0002068816941F4006181612068816921F48A
:1035D00080618161206881692A6941EA02218161F3
:1035E000D2E7206802F0BEFB2068C16941F0080103
:1035F000C1612068C16921F00401C1612068C1690D
:103600002A69114311E0206802F0E0FB2068C169DB
:1036100041F40061C1612068C16921F48061C16128
:103620002068C1692A6941EA0221C161ACE710B58D
:10363000040003D094F83D0010B107E0012010BD54
:10364000002084F83C00204600F01EF8022084F898
:103650003D00211D206802F0B9FA012084F84600DF
:1036600084F83E0084F83F0084F8400084F841006C
:1036700084F8420084F8430084F8440084F845004C
:1036800084F83D00002010BD7047704710B5044617
:10369000022249B104290ED0082913D094F8410020
:1036A000012816D0012010BD94F83E000128F9D160
:1036B00084F83E200FE094F83F000128F2D184F80E
:1036C0003F2008E094F840000128EBD184F8402026
:1036D00001E084F841200122206802F0BDFA13497C
:1036E0002068134A884201D0904203D1436C43F4CE
:1036F00000434364206888420DD090420BD0B0F163
:10370000804F08D00B49884205D00B49884202D02F
:103710000A49884204D1816801F00701062903D0D3
:10372000016841F001010160002010BD002C014042
:10373000003401400004004000080040000C00403C
:1037400070B50068304988425DD1304802F082F996
:103750002E49891F881D01F064FD2D4A2D492E48F0
:1037600000F0E4FF2D4A2E492E4800F0F8FF01F04A
:103770000FF805F0E7FC2C4908602748B0F9000075
:1037800005F042F9294C2A4D22462B4604F0E4FF6D
:1037900004F000FF274908601E48B0F9000005F05A
:1037A00033F922462B4604F0D7FF04F0F3FE2249FA
:1037B00008601748B0F9000005F026F922462B46AC
:1037C00004F0CAFF04F0E6FE1C4908601548B0F991
:1037D000000005F019F91A4D4FF0663422462B46C9
:1037E00004F0BAFF04F0D6FE164908600C48B0F9A0
:1037F000000005F009F922462B4604F0ADFF04F065
:10380000C9FE1149086070BD001000403E00002054
:103810002800002026000020240000202E00002088
:103820002C0000202A000020300000208FC2F52844
:103830005C1F9A4010000020140000201800002097
:10384000665E8D401C00002020000020704738B5C7
:10385000044690F84200202801D0022038BD61B112
:103860005AB10120206300206063204602F06AFC08
:103870000028F3D1216B012901D0012038BD216836
:103880000A684968009121680C3151E8002F42F024
:10389000100241E80023002BF5D138BD70B5314B43
:1038A00098425ED10A463049184600F091FA2FA698
:1038B00031462D48FCF718FE05462D4C43E02DA15E
:1038C000FCF774FE78B12DA12846FCF76FFEA0B17D
:1038D0002CA12846FCF76AFED0B12CA12846FCF7A3
:1038E00065FE00B32AE031460020FCF7FDFD28B359
:1038F000FCF7ECFD274920601FE031460020FCF773
:10390000F3FDD8B1FCF7E2FD22496060091D14E027
:1039100031460020FCF7E8FD80B1FCF7D7FD1D49DA
:10392000A060083109E031460020FCF7DDFD28B138
:10393000FCF7CCFD1749E0600C31086031460020EF
:10394000FCF7D2FD0546002DB9D1D4E9001212A032
:10395000FCF79AFCBDE87040322203490148FFF7AA
:1039600076BF70BD48040020EC0000202C3A000017
:103970000000002050574D410000000050574D42BC
:103980000000000050574D430000000050574D44C8
:1039900000000000342C014050574D41203D2025AF
:1039A000642C2050574D42203D2025640A00000021
:1039B00070470000F8B5016804460868CA684B699A
:1039C00010F00F0F4FF000055AD003F0010602F47B
:1039D0009077374365D0C10705D0D10503D5616C19
:1039E00041F001016164410705D5D90703D0616C3D
:1039F00041F002016164810705D5D90703D0616CEC
:103A000041F004016164010707D502F02001314350
:103A100003D0616C41F008016164616C00293BD006
:103A2000800604D5900602D5204602F0CEFA206822
:103A30004069616CC0F3801001F008010143204629
:103A40002BD002F08DFA20684069400621D520680D
:103A5000143050E8001F21F0400140E80012002A15
:103A6000F5D1E06BA8B16D494163E06BFEF70AF850
:103A7000002811D0E06B416B01B0BDE8F040084771
:103A800083060ED593060CD52046BDE8F84002F01B
:103A90009CBA2046FFF78CFFF8BDFFF789FF6564ED
:103AA000F8BD266B2023012E7CD1C6067AD5D6061A
:103AB00078D508684868009048694FF002064006CB
:103AC00040D5E16B086840680004000CE8D0A28D86
:103AD0008242E5D9E085886920282DD020680C3005
:103AE00050E8001F21F4807140E80012002AF5D14F
:103AF0002168143151E8000F20F0010041E8000274
:103B0000002AF5D12068143050E8001F21F0400150
:103B100040E80012002AF5D184F84230256320687D
:103B20000C3050E8001F21F0100140E80012002A7C
:103B3000F5D1E06BFDF782FF6663A08DE18D401A41
:103B400081B22AE0A08DE18D401A81B2E08D00287B
:103B5000A6D00029A4D022680C3252E8000F20F42D
:103B6000907042E80007002FF5D12068143050E82B
:103B7000002F22F0010240E80027002FF5D184F841
:103B80004230256320680C3050E8002F22F01002EC
:103B900040E80023002BF5D166632046FFF77EFE48
:103BA000F8BDFFE705062BD5150629D594F8410089
:103BB0002128F5D1A068B0F5805F01D12069B0B1AE
:103BC000206A411C2162216800784860E08C401E18
:103BD0000004000CE084E3D12068C16821F080017A
:103BE000C1602068C16841F04001C160D8E7206A27
:103BF0000088C0F308004860206A801C2062E5E766
:103C00004006CDD55006CBD5CA68204622F04002EA
:103C1000CA6084F8413000F0F4F8C1E7635E000840
:103C200070B5040004D094F84100002510B106E0FE
:103C3000012070BD84F84050204600F023F8242075
:103C400084F841002068C16821F40051C160204619
:103C500002F01CFA2068016921F49041016120689A
:103C6000416921F02A0141612068C16841F4005195
:103C7000C1606564202084F8410084F842006563D7
:103C8000002070BDF0B585B000240094019402942A
:103C900003940646454D0368454902200322AB4282
:103CA0004ED18B6943F480438B618B6903F480436D
:103CB00004938B6943F004038B6189693D4D01F0E6
:103CC000040104910102CDE90010039269462846DF
:103CD000FEF71CF92815CDE9000469462846029430
:103CE000FEF714F9354D3448802701C5102091C5E1
:103CF000324845F810496C61AC61EC61FEF77EF822
:103D000008B1FDF7CBFDB5636E622C4D2A484435F2
:103D10001430C5E90004C5E902472C616C61AC614F
:103D20002846EC61FEF76AF808B1FDF7B7FDF563C8
:103D30000022012125206E62FEF74CFB252030E099
:103D40001F4DAB422FD1CB6943F40033CB61CB691C
:103D500003F4003304938B6943F020038B6189697A
:103D6000184D01F0200104912021CDE900100392AB
:103D700069462846FEF7CAF84020CDE900046946A6
:103D800028460294FEF7C2F80F48416841F0E0610E
:103D900041F008014160002211462620FEF71AFB7F
:103DA0002620FEF709FB05B0F0BD000000380140F9
:103DB000001002400008014044000240D8040020E6
:103DC000004400400014014000000140704770476B
:103DD00090F84130202B01D00220704779B172B1A8
:103DE00001628284C28400214164212180F8411053
:103DF0000068C16841F08001C16000207047012067
:103E000070477047FEE7000070B5154D002208218D
:103E10002846FEF77CF9192001F0EEF90122102165
:103E20002846FEF774F9192001F0E6F9102128461A
:103E3000FEF768F90446012208212846FEF767F9D3
:103E4000322001F0D9F9002208212846FEF75FF957
:103E5000002210212846FEF75AF9204670BD0000C6
:103E6000001801402DE9F04100241C4E074625466C
:103E7000002208213046FEF74AF9192001F0BCF96A
:103E8000012210213046FEF742F9192001F0B4F961
:103E9000012208213046FEF73AF96006040E10218F
:103EA0003046FEF72FF908B1641CE4B2322001F06D
:103EB000A3F96D1CEDB2082DDAD30022082130469B
:103EC000FEF725F9012210213046FEF720F90FB147
:103ED00000F080F82046BDE8F081000000180140A5
:103EE00070B5164E05460024192001F085F9280604
:103EF00001D5012200E0002210213046FEF707F92B
:103F00006806050E192001F077F9012208213046D4
:103F1000FEF7FDF8322001F06FF90022082130464B
:103F2000FEF7F5F8641CE4B2082CDDD33046BDE89A
:103F3000704000221021FEF7EAB80000001801408E
:103F400010B5322001F058F90E4C01221021204604
:103F5000FEF7DDF8012208212046FEF7D8F81920E7
:103F600001F04AF9002210212046FEF7D0F819206E
:103F700001F042F920460022BDE810400821FEF77A
:103F8000C6B800000018014010B5114C00220821ED
:103F90002046FEF7BCF8322001F02EF90022102155
:103FA0002046FEF7B4F8322001F026F9012208215C
:103FB0002046FEF7ACF8322001F01EF90122102154
:103FC0002046FEF7A4F8BDE81040322001F014B9F5
:103FD0000018014010B5192001F00EF90E4C002216
:103FE00010212046FEF793F8192001F005F901226F
:103FF00008212046FEF78BF8322001F0FDF8002260
:1040000008212046FEF783F820460122BDE8104033
:104010001021FEF77CB800000018014070B5104D6B
:104020004FF48064002221462846FEF770F800F025
:1040300019F80122D60231462846FEF768F800F04A
:1040400011F8002231462846FEF761F800F00AF820
:1040500021462846BDE870400122FEF758B800000E
:10406000001401400020401CC0B20A28FBD3704756
:104070000C4800B5816985B041F008018161806913
:10408000694600F0080004904FF44060009003205F
:104090000390112001900448FDF738FF00F0AAF8C2
:1040A00005B000BD001002400014014070B50C4C7A
:1040B000012291022046FEF72AF8FFF7D3FF0122E2
:1040C000D50229462046FEF722F8FFF7CBFF002253
:1040D00029462046FEF71BF8BDE87040FFF7C2BF37
:1040E000001401402DE9F0470024164E8046254675
:1040F0004FF480694FF400676006040E01223946D0
:104100003046FEF704F8FFF7ADFF49463046FDF7AD
:10411000F9FF08B1641CE4B2002239463046FDF7CD
:10412000F6FFFFF79FFF6D1CEDB2082DE4D3B8F149
:10413000000F04D0FFF772FF2046BDE8F087FFF7BD
:10414000B5FFF9E7001401402DE9F041174E05468F
:1041500000244FF400674FF48068280601D501223F
:1041600000E0002241463046FDF7D1FFFFF77AFF1D
:10417000012239463046FDF7CAFFFFF773FF0022E0
:1041800039463046FDF7C3FF072C04D101224146D2
:104190003046FDF7BCFF6806050EFFF763FF641CA1
:1041A000E4B2082CD9D3BDE8F0810000001401402E
:1041B00070B501220E4D940221462846FDF7A7FF57
:1041C0000122D60231462846FDF7A1FFFFF74AFF3C
:1041D000002221462846FDF79AFFFFF743FF002201
:1041E00031462846FDF793FFBDE87040FFF73ABF20
:1041F0000014014070B50B4D4FF48064002221463D
:104200002846FDF784FF0122D1022846FDF77FFFF3
:10421000FFF728FF21462846BDE870400122FDF740
:1042200076BF00000014014070B50122104D9402C9
:1042300021462846FDF76BFFFFF714FF0122D60247
:1042400031462846FDF763FFFFF70CFF214628465D
:10425000FDF758FF08B1012400E000240022314698
:104260002846FDF754FFFFF7FDFE204670BD000015
:10427000001401402DE9F04F04469148ABB011AF56
:10428000B0E86810299287E868106CC80DAF87E81D
:104290006C0050E91423CDE9272350E91223CDE91E
:1042A000252350F8588900F15C031FAF93E80C10E8
:1042B0009346199350F8682B2A926CC887E86C00D3
:1042C00050E91820CDE923200020079008900490A1
:1042D000059006901B901C9009900A900B900390FB
:1042E0000C901D901E901A90E246084604F098FD2E
:1042F00005460E4684F0004004F092FD2A463346FF
:1043000002F054F904F046F96E4F15900DAC0222FC
:10431000CDE9004707AE012311460296104604F08E
:1043200057F81BAA29A927A88DE8070001231A46D8
:104330001946022004F04CF81B99079804F09CFDE4
:1043400007F1080528601C99089804F095FD68603D
:104350000DF10C0905F1280100940223CDE90119A2
:104360001A461946184604F033F809A91FAACDF8D1
:104370000090CDE9012102231A461946184604F09F
:1043800027F84146099804F077FD4F4C59462060C4
:104390000A9804F071FD606019990B9804F06CFDA7
:1043A000A06051460C9804F067FDE0600DF1940A9E
:1043B0000223CDE900A40DF1740B1A46CDF808B024
:1043C0001946012004F004F80DF1680823A9CDF87E
:1043D00000B0CDE90118012302221146184603F06E
:1043E000F7FF2A991A9804F047FD01464FF07E50D6
:1043F00004F0AAFD1A9023A8CDE90040022201236F
:1044000011460296104603F0E3FF05F1080B012365
:104410008DE840091A461946022003F0D9FFCDF86D
:1044200000A0CDE90158012302221146184603F0ED
:10443000CFFF1A99159804F07DFF1A90CDF800B0BF
:104440000123CDE901861A461946022003F0C0FF78
:104450000799286804F010FD38600899686804F02E
:104460000BFD7860CDF800B0CDE901A9022301224F
:104470001146184603F0ACFF0399119804F05AFF57
:1044800003900499129804F055FF0490059913982D
:1044900004F050FF05900699149804F04BFF069025
:1044A00005F12800CDF800900223CDE901401A461D
:1044B0001946184603F08CFF38682BB0BDE8F08F22
:1044C00008B1000890000020900600202DE9F04F70
:1044D00004469348ABB000F178030F4693E86810A8
:1044E00011A9299281E8681000F188050DF13408BE
:1044F0004ECD88E84E00D0E90812CDE92712D0E968
:104500000A12CDE92512B5E80E108846CDF858C03C
:10451000416892469B462A912ECD1FAE86E82E001A
:10452000D0E90C10CDE923100020079008900490EA
:10453000059006901B901C9009900A900B90039098
:104540000C901D901E901A90384604F069FC0646A7
:104550000D4684F0004004F063FC32462B4602F026
:1045600025F804F017F86F4F15900DAC0222CDE935
:10457000004707AE012311460296104603F028FFBC
:104580001BAA29A927A88DE8070001231A46194666
:10459000022003F01DFF1B99079804F06DFC07F142
:1045A000080528601C99089804F066FC68600DF105
:1045B0000C0905F1200000940223CDE901091A46F7
:1045C0001946184603F004FF09A91FAACDF8009068
:1045D000CDE9012102231A461946184603F0F8FED8
:1045E0004146099804F048FC4F4C514620600A9817
:1045F00004F042FC606059460B9804F03DFCA0605A
:1046000016990C9804F038FCE0600DF1940A02232E
:10461000CDE900A40DF1740B1A46CDF808B0194687
:10462000012003F0D5FE0DF1680823A9CDF800B0F4
:10463000CDE90118012302221146184603F0C8FEF5
:104640002A991A9804F018FC01464FF07E5004F0A5
:104650007BFC1A9023A8CDE90040022201231146D9
:104660000296104603F0B4FE05F1080B01238DE815
:1046700040091A461946022003F0AAFECDF800A010
:10468000CDE90158012302221146184603F0A0FE8D
:104690001A99159804F04EFE1A90CDF800B0012337
:1046A000CDE901861A461946022003F091FE0799CA
:1046B000286804F0E1FB38600899686804F0DCFBC6
:1046C0007860CDF800B0CDE901A90223012211469E
:1046D000184603F07DFE0399119804F02BFE039019
:1046E0000499129804F026FE04900599139804F09A
:1046F00021FE05900699149804F01CFE069005F121
:104700002001CDF800900223CDE901411A46194657
:10471000184603F05DFE38682BB0BDE8F08F00004E
:10472000D0B00008A8000020A00600207CB51446E8
:104730000D4606466B4606223B21682000F0A6F88F
:1047400000280BD1BDF8001049BA3180BDF8021025
:1047500049BA2980BDF8041049BA21807CBD7CB5D6
:1047600014460D4606466B4606224321682000F09B
:104770008DF800280BD1BDF8001049BA3180BDF882
:10478000021049BA2980BDF8041049BA21807CBDC5
:1047900008B56B4602224121682000F077F8BDF889
:1047A000000040BA00B204F02FF90022074B03F0DA
:1047B000D3FF074A074B03F01FFF03F0EBFE064948
:1047C00004F0ECFC04F082FC00B208BD004075402F
:1047D000A4703D0AD74342400000C84210B5FFF71D
:1047E00047FC80216B2000F0C0F86420FDF77CFBC3
:1047F00000216B2000F0B9F8032000F082F80020BF
:1048000000F07AF8322000F099F80021382000F00A
:10481000ACF800216A2000F0A8F80021232000F065
:10482000A4F88021372000F0A0F8752000F011F8DE
:10483000682801D0012010BD01216B2000F095F8FF
:1048400000216C2000F091F8322000F077F8002071
:1048500010BD10B50446FFF7ABFCD020FFF774FC89
:10486000FFF7E2FC2046FFF76FFCFFF7DDFCFFF7E8
:104870009FFCD120FFF768FCFFF7D6FC0020FFF774
:1048800031FC0446FFF7B6FC204610BD2DE9F0418F
:104890001D4614460F460646FFF78AFC7006000EBA
:1048A000FFF752FCFFF7C0FC20B1FFF7A3FC01208B
:1048B000BDE8F0813846FFF747FCFFF7B5FCFFF78E
:1048C00077FC012000EB4600C0B2FFF73DFCFFF78C
:1048D000ABFC09E0012C0DD05FF00100FFF702FCFA
:1048E000641E05F8010BE4B2002CF3D1FFF782FC43
:1048F0000020DDE70020F1E7C006010E1C2000F0DB
:1049000034B8C006010E1B2000F02FB8BC2801D31C
:10491000012110E0622801D302210CE02A2801D3F2
:10492000032108E0142801D3042104E00A2801D35C
:10493000052100E006211A2000F017B810B5044642
:104940004FF47A70844201D9044602E0042C00D26C
:104950000424B0FBF4F0401EC1B2192000F005F8A9
:104960006008BDE81040FFF7D1BF70B50C460546A2
:10497000FFF71EFCD020FFF7E7FBFFF755FC50B90F
:104980002846FFF7E1FBFFF74FFC2046FFF7DCFB73
:10499000FFF74AFC18B1FFF72DFC012070BDFFF7AF
:1049A00029FC002070BD2DE9F0411E4615460F463A
:1049B0000446FFF7FDFB6006000EFFF7C5FBFFF79F
:1049C00033FC60B93846FFF7BFFBFFF72DFC00242E
:1049D0000CE0305DFFF7B8FBFFF726FC20B1FFF7D6
:1049E00009FC0120BDE8F081641CE4B2AC42F0D3C4
:1049F000FFF700FC0020F5E70D4810B50B490160FA
:104A00001021416000218160C16001614161017636
:104A100041768176C17601774177FCF741FF002826
:104A200003D0BDE81040FCF739BF10BD0064004062
:104A3000200100200D4808B5416941F001014161A4
:104A40004069002200F00100009002210E20FDF7D5
:104A5000C1FC0E20FDF7B0FC002202210F20FDF763
:104A6000B9FCBDE808400F20FDF7A6BC00100240CD
:104A70002DE9F04F85B00024514800940194029430
:104A80000394816941F040018161816901F0400135
:104A90000491816941F010018161816901F0100187
:104AA0000491816941F004018161816901F004018F
:104AB0000491816941F008018161816901F0080177
:104AC0000491816941F0200181618069002200F038
:104AD0002000049008213B48FDF719FB012210211A
:104AE0003848FDF714FBDFF8E09000223F214846EC
:104AF000FDF70DFBDFF8D4A045F603070022394689
:104B00005046FDF704FBDFF8C8B04FF440680022C0
:104B100041465846FDF7FBFA082001250226CDE95B
:104B20000005CDE9024669462648FDF7EFF9102059
:104B3000009001AA112082E8510069462148FDF742
:104B4000E5F93F20CDE90005CDE902466946484632
:104B5000FDF7DCF900970396CDE90154694650460C
:104B6000FDF7D4F91B4E4FF42070CDE900066946DD
:104B700002945846FDF7CAF90320CDE90250CDE969
:104B8000008569465846FDF7C1F92802CDE90006BF
:104B9000694602941048FDF7B9F92020CDE90006D6
:104BA000694602945046FDF7B1F90095CDE90164DC
:104BB00069460448FDF7AAF905B0BDE8F08F00008A
:104BC000001002400018014000100140000C01409C
:104BD0000014014000001110000801400D4810B5FC
:104BE0000B4901600C49416000214FF48042816013
:104BF000C0E9031241618161C1610162FDF792FA6E
:104C0000002803D0BDE81040FCF748BE10BD0000EE
:104C10000054004048010020A08601000A4810B559
:104C2000084901604FF0FF3141604FF480718160AD
:104C3000FDF746FF002803D0BDE81040FCF72EBE6C
:104C400010BD0000002800409C0100200F4810B556
:104C50000D4901604FF48271416000218160C160A3
:104C60004FF400720161C0E90512C1610162416245
:104C700081620A21C162FDF7A4FF002803D0BDE8CC
:104C80001040FCF70BBE10BD00380040B001002002
:104C900010B596B000240F941094119412941394AC
:104CA0001C2168461494FBF759FC202107A8FBF748
:104CB00055FC3D483B49016040F2F311C0E9011445
:104CC00041F61F41C0E9031444618461FEF738F9DD
:104CD00008B1FCF7E3FD4FF480500F900FA9324864
:104CE000FEF7E4F908B1FCF7D9FD2F48FEF79FFC69
:104CF00008B1FCF7D3FD139413A92B481494FEF7C5
:104D0000E1F808B1FCF7CAFD6020CDE90004029487
:104D10000394049405940022694623480694FEF700
:104D200020FC08B1FCF7BAFD042269461E48FEF7D4
:104D300018FC08B1FCF7B2FD082269461A48FEF7D4
:104D400010FC08B1FCF7AAFD0C2269461648FEF7D4
:104D500008FC08B1FCF7A2FD0794089409944FF4ED
:104D600000500A94CDE90B4007A90F480E94FEF7B6
:104D70007EF808B1FCF792FD00210B48FEF786FC97
:104D800004210948FEF782FC08210748FEF77EFC53
:104D90000C210548FEF77AFC0348FEF781FB16B0AC
:104DA00010BD0000002C01400802002010B58CB09E
:104DB00024216846FBF7D2FB0024164809944FF0E3
:104DC00080410A94016040F2F311C0E9011441F6F8
:104DD0001F41C0E9031484610120CDE90004CDE93D
:104DE00002040494CDE905400794694609480894F3
:104DF000FEF7CAF908B1FCF751FD099409A9054865
:104E00000A94FEF75FF8002801D0FCF747FD0CB0CC
:104E100010BD00005002002010B58CB0242168465F
:104E2000FBF79CFB00241648099414490A9401607E
:104E300040F2F311C0E9011441F61F41C0E9031427
:104E400084610120CDE90004CDE902040494CDE998
:104E50000540079469460A480894FEF795F908B199
:104E6000FCF71CFD099409A905480A94FEF72AF8E5
:104E7000002801D0FCF712FD0CB010BD000400406A
:104E80009802002010B58CB024216846FBF766FB21
:104E900000241648099414490A94016040F2F31161
:104EA000C0E9011441F61F41C0E9031484610120E7
:104EB000CDE90004CDE902040494CDE9054007944E
:104EC00069460A480894FEF75FF908B1FCF7E6FC6A
:104ED000099409A905480A94FDF7F4FF002801D0B8
:104EE000FCF7DCFC0CB010BD00080040E002002024
:104EF00010B58EB000240794089409940A940B947A
:104F00001C2168460C94FBF729FB2A482849C0E974
:104F100000144FF6FF71C0E9024104618461FEF79D
:104F20000FF808B1FCF7BAFC4FF48050079007A9BE
:104F30002048FEF7BBF808B1FCF7B0FC1D48FEF7AF
:104F400076FB08B1FCF7AAFC0B940BA919480C944A
:104F5000FDF7B8FF08B1FCF7A1FC6020CDE9000423
:104F600002940022694613480494FEF7FAFA08B145
:104F7000FCF794FC042269460E48FEF7F2FA08B1E9
:104F8000FCF78CFC082269460A48FEF7EAFA08B1E9
:104F9000FCF784FC0C2269460648FEF7E2FA08B1E9
:104FA000FCF77CFC0348FEF77BFA0EB010BD000056
:104FB000000C0040280300201CB500240E4800947B
:104FC0000C490194016047F6FF41C0E901148911C1
:104FD0008461C160FDF7B4FF08B1FCF75FFC009489
:104FE000694605480194FDF76DFF002801D0FCF7E4
:104FF00055FC1CBD00100040700300201CB50024AF
:105000000F4800940D490194016040F2F311C0E98A
:10501000011441F61F418461C160FDF791FF08B1A1
:10502000FCF73CFC0094694605480194FDF74AFFF3
:10503000002801D0FCF732FC1CBD00000014004029
:10504000B803002010B596B000240F94109411946A
:10505000129413941C2168461494FBF77FFA2021C4
:1050600007A8FBF77BFA35483349016040F2F3119A
:10507000C0E9011441F61F41C0E903144461846191
:10508000FDF75EFF08B1FCF709FC4FF480500F906C
:105090000FA92A48FEF70AF808B1FCF7FFFB2748DA
:1050A000FEF7C5FA08B1FCF7F9FB139413A92348DE
:1050B0001494FDF707FF08B1FCF7F0FB6020CDE981
:1050C00000040294039404940594002269461B484A
:1050D0000694FEF746FA08B1FCF7E0FB04226946A5
:1050E0001648FEF73EFA08B1FCF7D8FB08226946DD
:1050F0001248FEF736FA08B1FCF7D0FB0C226946DD
:105100000E48FEF72EFA08B1FCF7C8FB0794089486
:1051100009944FF400500A94CDE90B4007A90748C1
:105120000E94FDF7A4FE08B1FCF7B8FB0348FEF7A8
:10513000B7F916B010BD0000003401400004002093
:105140000C4810B50A4901604FF4E131416000217B
:1051500081600C22C160C0E904128161C161FEF767
:105160005FFD002803D0BDE81040FCF797BB10BDE1
:1051700000380140480400200C4810B50A4901607D
:105180004FF4E1314160002181600C22C160C0E92F
:1051900004128161C161FEF743FD002803D0BDE820
:1051A0001040FCF77BBB10BD004400409004002081
:1051B000FEE7FEE71CB54FF47A71B0FBF1F2009206
:1051C000B0FBF1F201FB120003F0D4FF09490968BA
:1051D00003F0E4FF03F096FF0190009808B1FCF79C
:1051E00083FE002000E0401C019900908842FAD123
:1051F0001CBD0000E40000201CB503F0BBFF074904
:10520000096803F0CBFF03F07DFF0190002000E070
:10521000401C019900908842FAD11CBDE400002096
:105220007047F0B5428864235A4303886425B2FB73
:10523000F3F2D4B28288C0886A436843B2FBF3F2C7
:10524000B0FBF3F0D2B2C0B2944203D2824203D395
:10525000154604E0844201D2054600E0254694420A
:1052600003D9824203D8164604E0844201D9064697
:1052700000E02646AF19AB1B4FEA570CDBB2A1F892
:1052800004C0B54202D10020088030E0A5420CD114
:105290008242A2EB0000C0EB00104FEA800090FBBE
:1052A000F3F015D200F5B47012E0954207D1001B5F
:1052B000C0EB0010800090FBF3F0783008E08542EE
:1052C00007D1A01AC0EB0010800090FBF3F0F03083
:1052D00008804FF06400BCF1320F03FB00F302D8EA
:1052E000B3FBF7F003E0C7F1C80093FBF0F0488090
:1052F000F0BD70B50446FCF70FFF05464FF47A7613
:1053000006E0FCF709FF401BB04201D9032070BD45
:10531000206840688006F4D52068416841F010019B
:105320004160002070BD000070B50446006841680F
:1053300021F010014160FCF7EFFE05464FF47A764C
:1053400007E000BFFCF7E8FE401BB04201D9032094
:1053500070BD206840688006F4D5002070BD38B567
:105360000B46009204460022802100F009F8002834
:1053700004D0606D40F020006065032038BD00005F
:105380002DE9F8431E46914688460446089DFCF7E1
:10539000C3FE401B351AFCF7BFFE074625480068D0
:1053A000C0F3CB30684338E0701C37D0FCF7B4FE54
:1053B000C01BA84203D215B1009860B32CE020684E
:1053C000416821F0E00141606068B0F5827F0BD157
:1053D000A068B0F5004F02D0B0F5806F04D120680E
:1053E000016821F040010160A06AB0F5005F09D1B9
:1053F0002068016821F4005101602068016841F4CF
:1054000000510160012084F85100002084F8500010
:105410000320BDE8F8830025401E009020688168C5
:1054200038EA010004D000214945BDD10020F0E751
:105430000121F9E7540000202DE9FF4F83B0984681
:10544000DDE910944A1E637825781A44D3B2421ECF
:105450002A44D2B2C9B2C0B200F022FA2C2000F025
:1054600073FA002637E01F488442059801D12E3890
:1054700000E0203800FB0160616800254FEA192B2D
:1054800051F820704FEA1820019008F0FF0009F051
:10549000FF0A00901BE000BF07FA05F1102802D9AF
:1054A0004FF0004001E04FF40040014206D0019867
:1054B0008DF8080000988DF8090003E08DF808B019
:1054C0008DF809A0022102A800F05EFA6D1C207878
:1054D000A842E1D8761C6178B142C4D807B0BDE8D3
:1054E000F08F000080A400082DE9FC479946DDE913
:1054F0000A8416460F46054616E02078284486287A
:1055000003D960780525384487B2607838449628F6
:105510000DD8CDE900844B4639462846FFF78CFF6D
:105520002078761C284485B23278002AE5D1BDE87F
:10553000FC8700002DE9F04188B08046DDE90E458A
:105540001E460F46104603F06BFC02460B4607A1B1
:1055500002A8FAF7A5FE334602AA39464046CDE92D
:105560000045FFF7C1FF08B0BDE8F08125302E32BD
:10557000660000002DE9F04188B00F46DDE90E45D8
:1055800080461E4607A102A8FAF78AFE334602AA01
:1055900039464046CDE90045FFF7A6FF08B0BDE813
:1055A000F0810000256400002DE9F0411E46069BB5
:1055B000002415461F0A134ADBB207E002F81470F4
:1055C00002EB440C641C8CF80130A4B2AC42F5D35D
:1055D0008A19521ED3B24219521ED2B2C9B2C0B2F7
:1055E00000F05EF92C2000F0AFF900246D0005E01A
:1055F0002946044800F0C8F9641CA4B2B442F7D3A9
:10560000BDE8F081600500202DE9F04188B00F462B
:10561000DDE90E4580461E4607A102A8FAF740FEC6
:10562000334602AA39464046CDE90045FFF75CFF04
:1056300008B0BDE8F08100002573000008B5002126
:105640000090A02390220846FFF7AEFF08BD10B5DA
:1056500000F00EF9112000F077F97820FCF744FCF7
:10566000B12000F071F9012000F050F92C2000F079
:105670004DF92D2000F04AF9B22000F065F9012023
:1056800000F044F92C2000F041F92D2000F03EF903
:10569000B32000F059F9012000F038F92C2000F077
:1056A00035F92D2000F032F9012000F02FF92C20DF
:1056B00000F02CF92D2000F029F9B42000F044F975
:1056C000072000F023F9C02000F03EF9A22000F0EE
:1056D0001DF9022000F01AF9842000F017F9C1200A
:1056E00000F032F9C52000F011F9C22000F02CF9C9
:1056F0000A2000F00BF9002000F008F9C32000F0A8
:1057000023F98A2000F002F92A2000F0FFF8C420D3
:1057100000F01AF98A2000F0F9F8EE2000F0F6F80F
:10572000C52000F011F90E2000F0F0F8202000F064
:105730000BF93A2000F008F9052000F0E7F82A20DC
:1057400000F002F9002000F0E1F8002000F0DEF89F
:10575000002000F0DBF87F2000F0D8F82B2000F0CC
:10576000F3F8002000F0D2F8002000F0CFF800207D
:1057700000F0CCF89F2000F0C9F8E02000F0E4F839
:10578000022000F0C3F81C2000F0C0F8072000F051
:10579000BDF8122000F0BAF8372000F0B7F8322038
:1057A00000F0B4F8292000F0B1F82D2000F0AEF898
:1057B000292000F0ABF8252000F0A8F82B2000F0FD
:1057C000A5F8392000F0A2F8002000F09FF8012091
:1057D00000F09CF8032000F099F8102000F096F8F3
:1057E000E12000F0B1F8032000F090F81D2000F057
:1057F0008DF8072000F08AF8062000F087F82E20A8
:1058000000F084F82C2000F081F8292000F07EF8C8
:105810002D2000F07BF82E2000F078F82E2000F0EC
:1058200075F8372000F072F83F2000F06FF8002084
:1058300000F06CF8002000F069F8022000F066F833
:10584000102000F063F8132000F07EF80A20FCF727
:105850004BFB292000F078F80A20FCF745FB0020DC
:1058600000F03CF8BDE810400020FFF7E7BE000064
:1058700070B50A4D4FF40064002221462846FCF71B
:1058800046FC6420FCF730FB012221462846FCF749
:105890003EFCBDE870406420FCF726BB000C0140D4
:1058A000F8B507461C4615460E462A2000F04CF86F
:1058B000002000908DF801708DF803500421684697
:1058C00000F062F82B2000F03FF88DF801608DF8B1
:1058D00003400421684600F057F8F8BD10B50024D5
:1058E00030B1012806D0022807D0032805D103E0F3
:1058F000C02402E0A02400E06024362000F024F858
:105900002046BDE8104000F001B8000031B50C4C55
:10591000012291032046FCF7FAFBA5140022294638
:105920002046FCF7F4FB4FF0FF330122694605489F
:10593000FDF7D0F9012229462046FCF7E8FB38BDE7
:10594000000C0140B001002031B50D4C00224FF495
:1059500080412046FCF7DBFBA514002229462046A7
:10596000FCF7D5FB4FF0FF33012269460548FDF7F0
:10597000B1F9012229462046FCF7C9FB38BD0000D9
:10598000000C0140B00100202DE9F0410D4E0C4605
:105990000546012291033046FCF7B9FBB7140022FB
:1059A00039463046FCF7B3FBA2B24FF0FF3329462D
:1059B0000548FDF78FF939463046BDE8F041012230
:1059C000FCF7A5BB000C0140B00100207047FCF7BC
:1059D0009BBC70B596B028216846FAF7BFFD14212C
:1059E0000AA8FAF7BBFD18210FA8FAF7B7FD09209E
:1059F000012400904FF48030002504940694CDE9F2
:105A000001050226CDE907604FF4E01009906846D1
:105A1000FCF7C6FE08B172B6FEE70F20CDE90A0614
:105A20004FF48060CDE90C5002210AA80E95FCF7D6
:105A3000DBFD08B172B6FEE74FF40070CDE90F4010
:105A40000FA8FCF75BFD002801D072B6FEE716B088
:105A500070BD704710B50446132000F053F8C0071E
:105A60000FD0142000F06DF82080162000F069F8A7
:105A70006080182000F065F8A0801A2000F061F81E
:105A8000E08010BD10B500F027F868B100F030F8E4
:105A9000F621012000F079F800210F2000F075F8C0
:105AA000BDE8104000F00EB8034C04A0FAF7ECFB80
:105AB0002046FFF77FFBF8E780841E006572726F57
:105AC000720000000348017841F0020101700020DB
:105AD00000F05BB8E000002010B5122000F012F8D2
