:020000040800F2
:10000000F00C0020F1010008634B0008E5390008FE
:10001000614B00087B160008055A0008000000002C
:100020000000000000000000000000007152000805
:100030009516000800000000654B00087D5400087C
:100040000B0200080B0200080B0200080B0200085C
:100050000B0200080B0200080B0200080B0200084C
:100060000B0200080B0200080B0200080B0200083C
:100070000B0200080B0200087D1600088916000814
:100080000B0200080B0200080B0200080B0200081C
:100090000B0200080B0200080B0200080B0200080C
:1000A0000B0200080B0200080B0200080B020008FC
:1000B000015500080D550008195500080B020008ED
:1000C0000B0200080B0200080B0200080B020008DC
:1000D0000B020008ED590008F95900080B0200084E
:1000E0000B0200080B0200080B0200080B020008BC
:1000F000715500080B0200080B0200080B020008F3
:100100000B0200080B0200080B0200080B0200089B
:100110000B0200080B0200082555000831550008A5
:100120000B0200080B0200080B0200080B0200087B
:1001300000F002F800F04DF80AA090E8000C8244AC
:100140008344AAF10107DA4501D100F042F8AFF289
:10015000090EBAE80F0013F0010F18BFFB1A43F0A5
:100160000103184758B2000078B20000103A24BFCB
:1001700078C878C1FAD8520724BF30C830C144BF0C
:1001800004680C607047000000230024002500264E
:10019000103A28BF78C1FBD8520728BF30C148BFEA
:1001A0000B607047662909F0F880642900F0B08080
:1001B000732900F0FC84002070471FB500F030FD6B
:1001C00004000020002108F04BF9E0601FBD10B5CD
:1001D00010BD00F029FE1146FFF7EFFF07F044F8CD
:1001E00000F047FE03B4FFF7F2FF03BC05F059FF30
:1001F0000948804709480047FEE7FEE7FEE7FEE7BB
:10020000FEE7FEE7FEE7FEE7FEE7FEE704480549F6
:10021000054A064B70470000FF54000831010008F2
:10022000F0060020F00C0020F0080020F00800206C
:10023000704710B54C1084EA530404D54042C1F114
:10024000000138BF491E1B4204D55242C3F10003CE
:1002500038BF5B1E00F093F914F0804F04D0404289
:10026000C1F1000138BF491E14F0004F04D05242C2
:10027000C3F1000338BF5B1E10BD00000FB404497A
:1002800010B503AA029800F097FC10BC5DF814FBAF
:10029000400000200FB41CB5074B06AA7B446946FA
:1002A0000090059800F059FC0020694600F068FCB9
:1002B0001CBC5DF814FB0000E108000070B50C46A2
:1002C0000546012A05D02878800600D5EA69002372
:1002D00002E0012305E05B1C934202D2E05C0028AF
:1002E000F9D1A869E618C01AA861286A18442862DA
:1002F0002846AFF3008004E0D5E9012114F8010B92
:100300009047B442F8D32846AFF3008070BD000098
:100310002DE9F0410646002410687529314616A5DE
:1003200010D0AFF30080002802DA404213A507E0A6
:1003300031688A0701D512A502E0490704D511A545
:10034000012401E0AFF3008000210A2206F1240716
:1003500009E0B0FBF2FCB0FBF2F302FB1C00303012
:1003600078541846491C0028F3D123462A463046C3
:10037000BDE8F04100F085B9000000002D0000004C
:100380002B000000200000002DE9F05F89460446A4
:100390004FF0000ADFF824B1FB44C0F820A020464B
:1003A000E168884700287DD0252806D0D4E90121BE
:1003B0009047206A401C2062F1E700255F462046F6
:1003C000E16888472028064607DB312E05D2B81998
:1003D00010F8200C08B10543F1E7A80701D525F076
:1003E0000405C4F81CA00027C4F818A02A2E09D0C0
:1003F000304605F04FFE38B304EB8708303EC8F8AE
:10040000186019E059F8041B204604EB870291613B
:10041000E1688847012F064618D1E069002820DAF4
:1004200025F020051DE0D8F8180000EB800006EB51
:1004300040003038C8F818002046E1688847064672
:1004400005F028FE0028EED1012F0AD02E2E08D16B
:100450002046E16888477F1C0646022F45F02005AC
:10046000C4DBA069002803DA404245F00105A06121
:10047000E80701D025F01005A6B1A6F14100192822
:1004800002D8203645F400654A46314620462560AC
:100490004D46FFF787FE60B1012807D0ED1D25F01E
:1004A000070000E007E000F1080978E705F104091A
:1004B00075E730467AE7206ABDE8F09F68AD000036
:1004C00040EA010310B59B070FD1042A0DD310C8D1
:1004D00008C9121F9C42F8D020BA19BA884201D923
:1004E000012010BD4FF0FF3010BD1AB1D30703D06B
:1004F000521C07E0002010BD10F8013B11F8014B21
:100500001B1B07D110F8013B11F8014B1B1B01D13C
:10051000921EF1D1184610BD02F0FF0343EA0322F8
:1005200042EA024200F05CBB4FF0000200B5134605
:1005300094469646203922BFA0E80C50A0E80C5003
:10054000B1F12001BFF4F7AF090728BFA0E80C50B4
:1005500048BF0CC05DF804EB890028BF40F8042BAD
:1005600008BF704748BF20F8022B11F0804F18BF1A
:1005700000F8012B7047704770477047704753EA87
:10058000020C00F069802DE9F04B4FF00006002BC3
:100590001FBFB3FA83F503FA05F424FA05F65E40AB
:1005A00012BF1643B2FA82F502FA05F4C5F120052E
:1005B0001EBF22FA05FC44EA0C04203556EA044C1E
:1005C0004FEA144418BF641C4FF000084FF00009B4
:1005D000904271EB030C39D3002919BFB1FA81F7AE
:1005E00001FA07F6B0FA80F700FA07F6C7F120071C
:1005F0001EBF20FA07FC46EA0C062037B6FBF4FCC7
:10060000A7EB0507103F07F01F0BCBF120060CFAF4
:100610000BFB2CFA06F644BFB3460026202FA4BFDE
:100620005E464FF0000B5BEA060C08BF4FF0010B73
:1006300019EB0B09ABFB027C48EB0608C01B06FB61
:1006400002CC0BFB03CC71EB0C01C1E70B4602465D
:1006500041464846BDE8F08B13B54FF000004FF01F
:100660000001AFF30080BDE81C40704710B500F0FA
:10067000DBFA006810BD10B5044600F0D5FA04603E
:1006800010BD2DE9F0470D4699469246044600F10B
:1006900024080168880604D5E06921F01001216072
:1006A00000E00120A84201DD471B00E00027A1690E
:1006B0007A1902EB0900081AA0612078C00602D45A
:1006C0002046AFF30080002608E0D4E901211AF8A3
:1006D00006009047206A401C761C20624E45F4DBE1
:1006E0002078C0060AD52046AFF3008006E0D4E9A2
:1006F000012130209047206A401C2062381EA7F15B
:100700000107F4DC07E0D4E9012118F8050090475F
:10071000206A401C2062281EA5F10105F3DC20465A
:10072000AFF300802078000602D50220BDE8F087F4
:100730000120FBE770472DE9FF4F0C461E464FF0A6
:10074000FF378BB0D2E90001DDF860800A908A465D
:10075000C1F30A5505B93D46002108464FF0000097
:10076000BAF1000F00F4400005DA00EB80004FF40E
:10077000400101EA50004FEA9059B9F1010F00DD44
:10078000B9460A9850EA4A000ED044F61050A5F235
:10079000FF3545432F14B8F1000F1ED07542291EB6
:1007A0001EDDC9F100021CE0B8F1010F4FF000009E
:1007B00001D0302103E0F24305E02154401CB04257
:1007C000FBDB30460022002121540B99C1F8088040
:1007D000C1E900200FB0BDE8F08FBD1B6D1CDEE746
:1007E0004A4600DA694206A800F0A8FA06AB93E888
:1007F000070003AB83E8070050460A9900F082FB2C
:100800008DE80700A0F500501F3800900398002DD8
:1008100009DD42F21F014A46084403A903906846D5
:1008200000F0E1FD08E0A0F500504A461F3803A99A
:100830000390684600F0EBFD8DE807000004000C13
:1008400003D04FF0FF30410800E01046B8F1000F30
:1008500003D00022009215461EE0751E05D400F05C
:10086000E7F9303262556D1EF9D5B34601220843CF
:1008700002D000227F1C04E02078302801D1002221
:100880007F1E002A099786D01DE0112D07DA00F09F
:10089000CFF9303262556D1C50EA0102F5D10843A0
:1008A00002D00098C8B10EE00021681E05E0235C6C
:1008B000625C63542254401E491C8142F7DBAB4604
:1008C000A81B401E0990002004F80B000B98099A01
:1008D000C0F80880C0E9002B7CE711264FF0000823
:1008E00059E72DE9F04F88460446D21D22F0070152
:1008F00091B0D1E90001CDE90A0105F084F8024682
:100900000B98C00F01D02D2007E02068810701D58A
:100910002B2002E0202101EAC000032A099001D027
:10092000072A05DB03464146204600F0C7F90BE1E4
:100930002078800601D5E06900E00620B8F1650F57
:10094000814606D0B8F1660F18D0B8F1670F70D1A4
:1009500031E00020B9F1110F009001DB112301E01B
:1009600009F101030AAA01A90CA8FFF7E4FEDDE9D9
:100970000C70002609F10105834647E001204B4633
:1009800000904FF000470AAA01A90CA8FFF7D3FE78
:10099000DDE90DB00C995D46002610B909F10100A2
:1009A0000D18B9EB050003D4C0F1FF3609F10105BC
:1009B000A5EB09002BE0B9F1010F01DA4FF00109B5
:1009C0000020B9F1110F0090484601DD112300E02D
:1009D00003460AAA01A90CA8FFF7ADFEDDE90C70D9
:1009E0004D4600268346207800070AD4AB4500DA3E
:1009F0005D4601A8012D04DD411911F8011C3029C3
:100A000007D04F4502DA17F1040F04DA01208246BD
:100A10000FE06D1EEEE7002F02DCED1B3E4403E00D
:100A2000781CA84200DD7D1CB81B00F1010A4FF0C4
:100A300000472078000703D4AA4501DB4FF0FF3AB6
:100A40000021B7F1004F0DF143088DF8431024D079
:100A500002202B23002F01DA7F422D230A21021EC0
:100A6000A0F1010000DC5FB197FBF1FC97FBF1F214
:100A700001FB1C7C17460CF1300C08F801CDEEE7A9
:100A8000A8F1010003702188090501D5452100E086
:100A90006521A0F1010800F8011C09980FA9A1EB3C
:100AA0000807FF1D00B10120411901EBEA70A1699F
:100AB0003844081A401EA0612078C00602D420469F
:100AC000AFF30080099828B1D4E901219047206A4A
:100AD000401C20622078C00622D52046AFF300805B
:100AE0001EE0002E04DBB34502DD01A8805D00E0BE
:100AF0003020D4E901219047206A401C2062761CF6
:100B0000AAF101005FEA000A0AD100F089F8C06882
:100B10000168405CD4E901219047206A401C2062B2
:100B2000281EA5F10105DCDC07E0D4E9012118F855
:100B3000010B9047206A401C2062381EA7F1010774
:100B4000F3DC2046AFF30080032011B043E6000041
:100B500001694A1C02610878704700B58FB0CDE981
:100B600001310021059105497944CDE90310114671
:100B70006846FFF709FC0FB000BD0000E5FFFFFF6E
:100B80000A6802F8010B0A60704710B5436913B197
:100B9000AFF3008001E0FFF791FB012010BD127858
:100BA00000F124010A7000224A700122EDE7116869
:100BB0004FF0FF32E9E70000074B70B50D467B446C
:100BC000FFF7CBFF0446284600F026F910B14FF09E
:100BD000FF3070BD204670BD8F6100004FF00002F5
:100BE0000429C0F0128010F0030C3FF49FACCCF14C
:100BF000040CBCF1020F18BF00F8012BA8BF20F8AD
:100C0000022BA1EB0C01FFF791BC5FEAC17C24BF72
:100C100000F8012B00F8012B48BF00F8012B7047AA
:100C200000487047B006002000487047900600203A
:100C300030B5B0F10A024FEA900E71F100034EEAAE
:100C4000817EB0EB0E0061EB91014FEA101E4EEA7F
:100C5000017E10EB0E0041EB11114FEA102E4EEA0F
:100C6000016E10EB0E0041EB11214FEA104E4EEADF
:100C7000014E10EB0E0041EB1141401841F1000113
:100C80004FEAD00040EA41704FEAD10110EB8005F5
:100C90004FEA810444EA907444EB01046D1944EB7B
:100CA0000404521BA3414FF0000348BF0A3200D591
:100CB00030BD401C41F1000130BD00002DE9F04184
:100CC0001F46044603260168072A01F4006004DB7E
:100CD00008B116A505E016A503E008B115A500E0CA
:100CE00015A521F010002060A069C01EA0610FB101
:100CF000401EA0612046AFF300804FB1D4E901212E
:100D000038469047206A401C2062C01C206206E0E2
:100D1000206AFAE7D4E9012115F8010B9047761E05
:100D2000F8D22046AFF30080BDE8F0814E414E007E
:100D30006E616E00494E4600696E66002DE9F0470F
:100D4000814616468AB0334878440DC88DE80D00B8
:100D500030487844801C03AC0DC884E80D0041F68F
:100D60009B300844372190FBF1F290FBF1F5A5F19F
:100D7000800501FB12041B3C02D56442012000E007
:100D80000020DFF890A080460027FA44AAF1BE0AAE
:100D90000DE0E00709D03246684607EB47010AEB51
:100DA000810100F034FB8DE8070064107F1C002CEB
:100DB000EFD1184F7F44AC3F18E0E80714D007EBA1
:100DC00004100DF1180A90E80E008AE80E00C068C1
:100DD000F04201D198190890324606A903A800F004
:100DE00016FB03AB83E807006D10641C002DE4D1F3
:100DF00032466946B8F1000F03A802D000F0F3FABA
:100E000001E000F004FBC9E90001C9F808200AB0BC
:100E1000BDE8F08708A60000007B00F08000704766
:100E200000487047900600207546FFF7F9FFAE4670
:100E300005006946534620F00700854618B020B5E6
:100E4000FFF7E4F9BDE820404FF000064FF000073F
:100E50004FF000084FF0000B21F00701AC46ACE862
:100E6000C009ACE8C009ACE8C009ACE8C0098D46CF
:100E7000704710B50446AFF300802046BDE810402F
:100E8000FFF7B0B94FF0013C50F8042B51F8043B88
:100E90009A4221D1A2EB0C03934313EACC1317D14E
:100EA00050F8042B51F8043B9A4215D1A2EB0C03E5
:100EB000934313EACC130BD150F8042B51F8043BA5
:100EC0009A4209D1A2EB0C03934313EACC13DBD073
:100ED0004FF00000704700BFD01A01BAB1FA81F19B
:100EE00001F0180122FA01F0CB40C1F12001DBB280
:100EF000C0B2C01A2CFA01F3D11A914311EAC311FE
:100F0000E6D170475FEA400C08BF91F0000F4FEA4E
:100F10008C234FEAC12243EA51514FEA1C5018BFBB
:100F200000F5F0404FEA300018BF41F000415FEAA1
:100F30006C5C00F02980BCF1FF3F08BF40F08040AE
:100F40007047130C06BF12044FF0100C4FF0000C4A
:100F5000130E04BF12020CF1080C130F04BF120190
:100F60000CF1040C930F04BF92000CF1020CD30F90
:100F700004BF52000CF1010C11464FF00002A0F129
:100F80001F00A0EB0C00704711F0004F08BF704726
:100F900031F000413FF4D5AF0B0C06BF09044FF010
:100FA000100C4FF0000C0B0E04BF09020CF1080CE2
:100FB0000B0F04BF09010CF1040C8B0F04BF890057
:100FC0000CF1020CCB0F04BF49000CF1010CCCF169
:100FD0002003A0EB0C0022FA03F302FA0CF241EA20
:100FE000030100F10100704720F07F4C80EA03000C
:100FF00023F07F47ACEB070303F57C5300F0004080
:1010000003F1FF032DE980494FEA154B09B44FEA7C
:10101000144325EA0B4E24EA03480FF2042606EB9C
:10102000132749083E785FEA320203FB0667C7F5DB
:10103000000707FB06F64FEA54374FEAD64606F19B
:10104000020607FB066CCCF1005C4FEA1C472CEA59
:10105000074C07FB06F40CFB06F504EB15464FEABC
:10106000961634BF00204FF000404FEAD13706FB00
:1010700007FC4FEA1C4C0CFB0BF7D21B03FB0CF7D5
:1010800061EB07010CFB0EF7B0EB074072EB174268
:101090000CFB08F734BFA2EB0742B2EB074261EB4F
:1010A00017414FEA0C444FEA910706FB07FC4FEA51
:1010B0001C4C0CFB0BF7B0EBC74072EB573203FB39
:1010C0000CF734BFA2EBC742B2EBC74261EB57311A
:1010D0000CFB0EF7B0EBC70072EB57720CFB08F776
:1010E00034BFA2EBC702B2EBC70261EB5771039F9B
:1010F0004FEA816141EA921104EBCC044FEAD13707
:101100004FEA826206FB07FC42EA90124FEA8060D7
:101110004FEA1C4C0CFB0BF7D21B03FB0CF761EBEB
:1011200007010CFB0EF7B0EB074072EB17420CFB0C
:1011300008F734BFA2EB0742B2EB074261EB17415D
:101140004FEA8C554FEA910704EB9C2406FB07FC01
:101150004FEA1C4C0CFB0BF7B0EBC74072EB57325D
:1011600003FB0CF734BFA2EBC742B2EBC74261EB03
:1011700057310CFB0EF7B0EBC70072EB57720CFB4C
:1011800008F734BFA2EBC702B2EBC70261EB57719D
:1011900015EB4C254FEA816141EA92114FEA8262D8
:1011A0004FEAD13742EA901206FB07FC44F10004F3
:1011B0004FEA80604FEA1C4C0CFB0BF7D21B03FB81
:1011C0000CF761EB07010CFB0EF7B0EB074072EB7D
:1011D00017420CFB08F734BFA2EB0742B2EB074201
:1011E00061EB174115EB1C154FEA813141EA924141
:1011F0004FEA823242EA90424FEA80304FEA0C7660
:1012000044F1000448EA03434EEA0B484FF0000E55
:10121000B2EB080C71EB030724BF624639464EEB74
:101220000E0E4FF0000B0018524149414BEB0B0BD7
:10123000B2EB080C71EB03077BF1000B24BF624695
:1012400039464EEB0E0E4FF0000B0018524149414B
:101250004BEB0B0BB2EB080C71EB03077BF1000BB4
:1012600024BF624639464EEB0E0E51EA020718BF04
:1012700046F0010616EB0E7655F1000254F100011E
:1012800003D5BDE88901BDE80088BDE88901BDE856
:101290000048B619524141EB0101A3F10103704727
:1012A00080807F7E7D7C7B7A7978777676757473A3
:1012B000727171706F6E6E6D6C6C6B6A6A69686862
:1012C000676666656464636362616160605F5F5EF8
:1012D0005E5D5D5C5C5B5B5A5A595958585757566E
:1012E00056555555545453535252525151505050D3
:1012F0004F4F4F4E4E4D4D4D4C4C4C4B4B4B4A4A25
:101300004A49494948484847474747464646454568
:1013100045444444444343434342424242414141A1
:10132000002B26D4770021D01CB54FEA370703B431
:101330004FF010004FF010014FF000000FBCBDE85F
:1013400010400BF1010BBBF1010F08BF5FEA17075B
:1013500022BF12F1010211F101014FF0004143F1EE
:10136000000300F0004043EA00007047F9D357083B
:10137000DAE746EA064613F1400F4FEA16461FDD4C
:1013800013F1200FDFBF16430A46002120335B42D2
:10139000C8D0C3F1200746EA064602FA07F74FEA2B
:1013A000164646EA0706C3F1200722FA03F201FABD
:1013B00007F721FA03F14FF0000342EA0702B1E711
:1013C00046EA020646EA06464FEA164646EA01069D
:1013D000BCBF46EA0646360C4FF000034FF0000251
:1013E0004FF000019EE72DE9C048934630B491E8E4
:1013F000380007C831EA400C48BF34EA430C03D533
:10140000FFF7F2FDFFF78CFFF0BCBDE800882DE987
:10141000C048934630B491E8380007C810F0804FB8
:1014200008BF13F0804F03D100F005F8FFF778FFF5
:10143000F0BCBDE8008820F07F4780EA030023F07D
:101440007F4C07EB0C03A3F57C5300F00040A3F1A5
:10145000FE0392F0000F00F0B38095F0000F00F053
:1014600077802DE901494FEA11404FEA144621EAFD
:10147000004800FB06FC24EA064708FB06F607FBCB
:1014800008F800FB07F718EB06484CEB164C4FEA40
:10149000124B18EB07484FEA15464CEB174022EA6F
:1014A0000B4E0BFB06FC25EA06470EFB06F607FB78
:1014B0000EFE0BFB07F71EEB064E4CEB164C4FF0E7
:1014C00000061EEB074E4CEB174B18EB0B0840F1D8
:1014D000000018EB0E0B58EB000840F100008F1ACB
:1014E0004FF000013CBFC943661B14BFB5EB040CB1
:1014F00000213CBFC943F61B4FEA17444EEA8E0E4B
:1015000027EA04454FEA1C4704FB07622CEA074C14
:1015100005FB07F70CFB05F604FB0CFC16EB074676
:1015200042EB174216EB0C4642EB1C421BEB060645
:1015300058EB0202414146EA9E0601D5BDE8018909
:10154000B619524141EB0101A3F10103BDE8018944
:101550004FEA14454FEA114724EA054621EA074CB1
:1015600005FB07F406FB07F70CFB06F105FB0CFC7B
:1015700011EB074144EB17444FEA124711EB0C41C2
:1015800044EB1C4422EA074C05FB07F206FB07F775
:101590000CFB06F605FB0CFC16EB074642EB17426C
:1015A00016EB0C4642EB1C456A1854F1000148BF8B
:1015B0007047B619524141EB0101A3F10103704795
:1015C00095F0000F37D04FEA11424FEA144721EA55
:1015D000024624EA074C02FB07F106FB07F70CFB67
:1015E00006F402FB0CFC14EB074441EB17414FEAF5
:1015F000154714EB0C4441EB1C4125EA074C02FB58
:1016000007F506FB07F70CFB06F602FB0CFC16EBD6
:10161000074645EB174516EB0C4645EB1C421219E5
:1016200051F1000148BF7047B619524141EB010129
:10163000A3F1010370474FEA14454FEA114724EA2A
:10164000054621EA074C05FB07F106FB07F70CFBF3
:1016500006F24FF0000605FB0CFC12EB074241EBD3
:10166000174112EB0C4251EB1C4148BF70479218D6
:1016700041EB0101A3F101037047FEE7014800F0CF
:101680008BB9000070040020014800F085B900000B
:10169000B4040020704772B6FEE770B5040003D0B2
:1016A00094F8200010B104E0012070BD204600F045
:1016B00081F82068016841F00101016000F0E6FB5B
:1016C0000546052604E000F0E1FB401B0A2811D87E
:1016D00020684068C007F6D02068016821F0020148
:1016E000016000F0D3FB05460BE000F0CFFB401B90
:1016F0000A2806D9606A40F40030606284F82060ED
:10170000D2E7206840688007EFD4207E0128206857
:1017100001683DD021F080010160607E01282068D1
:10172000016838D021F040010160A07E01282068C6
:10173000016833D021F020010160E07E012820689B
:1017400001682ED041F010010160207F012820683F
:10175000016829D021F008010160607F012820681C
:10176000016824D021F004010160D4E9020108439A
:10177000D4E90412114308436168491E08432168F3
:10178000C86100206062012084F82000002070BD44
:1017900041F08001C0E741F04001C5E741F0200180
:1017A000CAE721F01001CFE741F00801D4E741F08A
:1017B0000401D9E710B586B0002100910191029192
:1017C000039100681349884222D11348C16941F04E
:1017D0000071C161C16901F000710491816941F03A
:1017E0000401816180690D4C00F0040004904FF405
:1017F000006000906946204600F042FAA014009074
:1018000002200190032003906946204600F038FA38
:1018100006B010BD00640040001002400008014006
:1018200010B590F821100022022905D0042181630F
:1018300080F82020012010BD01680B6823F00E0302
:101840000B6001680B6823F001030B6090F84030D7
:10185000C46B012101FA03F3636080F8211080F862
:101860002020104610BD00002DE9F05F90F82110F7
:101870000024022903D004218163012485E001684A
:101880000A6822F00E020A6001680A6822F001026A
:101890000A603F4E3E4FB215DFF8F4C0DFF8F0901B
:1018A000DFF8ECA0DFF8E8B0DFF8E4E00168783FAB
:1018B00013011502ACF1640CA9F15009AAF13C0A1C
:1018C000ABF1280BAEF1140E4FF48018B14227D9BA
:1018D000B9420ED0614512D049451DD0514518D0AE
:1018E000594518D0714501D1424615E0294EB14203
:1018F00001D1012210E0274E1436B14201D110224D
:101900000AE0244E2836B14206D0224A3C329142A7
:1019100001D11A4600E02A461E49091F0A602BE041
:10192000B94213D0614517D0494522D051451DD049
:1019300059451DD0714501D142461AE0B14202D14C
:101940004FF0807215E0134EB14201D1012210E038
:10195000104E1436B14201D110220AE00D4E283645
:10196000B14206D00B4A3C32914201D11A4600E006
:101970002A46074980394A60012180F82110002158
:1019800080F82010416B01B188472046BDE8F09FE8
:1019900080000240080402402DE9F05FC16B0A6834
:1019A00001680B68046C4FF0040808FA04F8844DD1
:1019B000844E854FDFF814C2DFF81492DFF814A2CA
:1019C000DFF814B2DFF814E218EA020F65D05FEA1C
:1019D000437862D50A68920603D40A6822F00402AA
:1019E0000A60DFF8F0814FF48062016808F11408A2
:1019F00013011402414524D9A9420DD0B1420FD0A0
:101A0000B9421AD0614515D0494515D0514501D18B
:101A1000120312E0594501D104220EE0714501D1B3
:101A200040220AE06D4D1435A94206D06B4A283297
:101A3000914201D11A4600E022466749091F0A6017
:101A400029E0A94213D0B14215D0B94220D0614556
:101A50001BD049451BD0514502D14FF4800217E0FD
:101A6000414502D14FF0806212E0594501D1042274
:101A70000EE0714501D140220AE0584D1435A942CB
:101A800006D0564A2832914201D11A4600E0224639
:101A90004B4908394A60C16A71E04FF0020808FA00
:101AA00004F818EA020F70D05FEA83786DD50A68EF
:101AB000920606D40A6822F00A020A60012180F820
:101AC0002110DFF810814FF40072016808F114084A
:101AD00013011402414524D9A9420DD0B1420FD0BF
:101AE000B9421AD0614515D0494515D0514501D1AB
:101AF000120312E0594501D102220EE0714501D1D5
:101B000020220AE0354D1435A94206D0334A283246
:101B1000914201D11A4600E022462F49091F0A606E
:101B200029E0A94213D0B14215D0B94220D0614575
:101B30001BD049451BD0514502D14FF4001217E08C
:101B4000414502D14FF0007212E0594501D1022205
:101B50000EE0714501D120220AE0204D1435A94242
:101B600006D01E4A2832914201D11A4600E0224690
:101B7000134908394A60002180F82010816A002941
:101B80001CD0BDE8F05F0847FFE70825A5401542D7
:101B900014D01A0712D50A6822F00E020A6090F8D3
:101BA0004020C36B012101FA02F25A60816380F880
:101BB0002110002180F82010016BE0E7BDE8F09FC4
:101BC000080002401C000240300002404400024075
:101BD000580002406C000240080402401C0402400D
:101BE00030B560B11A4B026814219A4209D2194BE0
:101BF0001344B3FBF1F18900016417490AE00120A5
:101C000030BD134B5B421344B3FBF1F18900016417
:101C10000F490839C163022180F82110136843F687
:101C2000F0718B43F0E901142143D0E902452C43C4
:101C300021430469214344692143846921431943B1
:101C4000116000214163012242770177084630BDCF
:101C500008040240F8FFFDBF0000024070B50446D2
:101C600000F014F90546601C02D0044800780444D2
:101C700000F00CF9401BA042FAD370BD44000020D4
:101C80002DE9F84FDFF8C8910024A9F1040B234691
:101C90000F2709F1040AABF1040ED1E00125A5409C
:101CA00006EA0502AA4276D1DFF8A8C14E68A6EB83
:101CB0000C0866452BD00DDC032E34D005DC36B382
:101CC000012E19D0022E2FD11BE0112E16D0122E6C
:101CD0002AD119E0B8F5881F19D006DCB8F5803F85
:101CE00015D0B8F5801F1FD111E0B8F5001F0ED038
:101CF000B8F5041F18D10AE0CB6815E0CB681B1DAE
:101D000012E0CB6808330FE0CB680C330CE08B6833
:101D10002BB1012B4FF0080303D0456104E00423ED
:101D200002E0056100E00023FF2A01D8064601E039
:101D300000F104064FEA840501D9A5F12005D6F883
:101D4000008007FA05FC28EA0C0803FA05F548EAC2
:101D50000508C6F800804D68ED0070D53E4DAE69AF
:101D600046F00106AE61AD6924F0030605F00105F9
:101D700000953A4D06EB050CDCF80850A607360F27
:101D800007FA06F825EA0805DFF8D480404503D1B4
:101D90004FF0000825E052E0DFF8C880404502D14E
:101DA0004FF001081DE0DFF8C080404502D14FF040
:101DB000020816E0DFF8B480404502D14FF0030876
:101DC0000FE0DFF8AC80404502D14FF0040808E096
:101DD000DFF8A080404502D14FF0050801E04FF048
:101DE000060808FA06F848EA0508CCF808804D68A5
:101DF000D9F80060ED024D4601D5164300E0964348
:101E00002E604D68DAF80060AD02554601D51643E4
:101E100000E096432E604D68DBF80060AD035D4640
:101E200001D5164300E096432E604D68DEF8006051
:101E3000ED03754601D5164300E096432E60641C01
:101E40000A681646E2407FF429AFBDE8F88F00002B
:101E50000804014000001110001002400000014081
:101E600000080140000C0140001001400014014036
:101E700000180140001C01408068084000D001208B
:101E800070470AB1016170470904FBE701488068A7
:101E9000704700004400002070B5040025D094F87D
:101EA0003D00002520B984F83C50204600F0B8F8E9
:101EB000242084F83D002068016821F001010160C0
:101EC0002068016841F4004101602068016821F444
:101ED0000041016000F022FB4D4A6168914201D847
:101EE0004C4900E04C49884201D2012070BD4B4969
:101EF0002368B0FBF1F15E6826F03F060E435E609A
:101F00006368934206D94FF4967359434FF47A733A
:101F1000B1FBF3F12368491C1E6A26F03F063143EA
:101F200019626168914210D84900401EB0FBF1F27D
:101F3000521CC2F30B02042A01D2042022E0B0FB9F
:101F4000F1F0401CC0F30B001CE0A268F2B301EBFF
:101F5000C10303EB0116431EB3FBF6F35B1C43F412
:101F600080431B0549D092B301EBC10202EB011182
:101F7000401EB0FBF1F0401CC0F30B0040F4804069
:101F800040F400402168CA694CF6FF739A4310433D
:101F9000C861D4E9071001432068026822F0C0023A
:101FA00011430160D4E9030101432068826848F2CB
:101FB000FF339A4311438160D4E905010843216846
:101FC000CA6822F0FF021043C86001E00EE016E08C
:101FD0002068016841F0010101602564202084F837
:101FE0003D00256384F83E50002070BD01EB4106A2
:101FF000431EB3FBF6F35B1CB3E70120C2E701EB22
:102000004101401EB0FBF1F0401CC0F30B00B7E7EC
:10201000A086010080841E0000093D0040420F00A0
:1020200010B586B0002100910191029103910068E2
:102030000F4988421AD10F4CA06940F00800A061F6
:10204000A069694600F008000490C02000901220AA
:102050000190032003900848FFF712FEE06940F466
:102060000010E061E06900F40010049006B010BDBB
:102070000054004000100240000C014002488168FA
:10208000027811448160704744000020074810B571
:10209000016841F010010160032000F09FF80F205B
:1020A00000F006F800F050F8002010BD00200240BB
:1020B00030B50546204887B0C16941F00101C161D2
:1020C000C06906A900F00100009001A800F006FA1E
:1020D0000498B8B100F022FA400018494FF080424D
:1020E000B0FBF1F11648491E0260416040F2E73250
:1020F0000021C0E903218160816100F011FE04002C
:1021000003D015E000F00AFAE7E70D4800F082FE80
:1021100004000DD11C2000F033F8102D07D200224E
:1021200029461C2000F03AF80648056000E001242A
:1021300007B0204630BD00000010024040420F00B2
:10214000F8040020480000200B4808B5816941F0E0
:1021500001018161816901F001010091C16941F0D2
:102160008051C161C06900F080500090034841680F
:1021700021F0E061416008BD001002400000014014
:10218000002809DB00F01F02012191404009800076
:1021900000F1E020C0F8001170470000F0B40E4BD1
:1021A0001B680C46C3F30223C3F10705042D00D9B5
:1021B0000425191D072901D2002300E0DB1E01269A
:1021C00006FA05F1491E214099409E40761E1640B0
:1021D0003143F0BC03F02BBC0CED00E0064900F0ED
:1021E000070208684FF6FF03184040EA0220034A3E
:1021F00010430860704700000CED00E00000FA0595
:10220000014901200862704700000E4210B50146E6
:102210000020284C04292FD00BDC012930D00229C2
:1022200029D100F08BF96168C1F38131491C490063
:102230001FE0082920D010291DD161682268D20131
:1022400019D51D48C1F38342C903805C0AD5616872
:10225000194AC1F34041921E515C184AB2FBF1F198
:10226000484301E0164948436168490203D44000ED
:102270000321B0FBF1F010BDBDE8104000F06EB9D5
:10228000226AC2F30121012903D1920701D5C803B3
:1022900010BD022905D1626A920702D549F6404075
:1022A00010BD0329FCD121688903F9D54FF22440E0
:1022B00010BD000000100240EE94000800127A00E9
:1022C00000093D002DE9F84305460078354CC0076C
:1022D00054D0E0690026C00008D4E06940F0805086
:1022E000E061E069012600F0805000902E4801680E
:1022F000C90512D40168804641F480710160FFF77E
:10230000C5FD074605E000BFFFF7C0FDC01B642800
:1023100023D8D8F80000C005F6D5206A10F4407024
:1023200021D0A98801F4407181421CD0206A1F4944
:10233000012220F440700A6000220A602062C00777
:1023400011D0FFF7A3FD074641F2883808E000BF2F
:10235000FFF79CFDC11B414502D90320BDE8F8836E
:10236000206A8007F4D5206A696820F44070084329
:1023700020621EB1E06920F08050E061287880077B
:1023800005D56068A96820F440400843606028785B
:10239000C00605D56068696920F480000843606064
:1023A0000020DBE700100240007000404004424281
:1023B0002DE9F0470F46050061D0434E306800F02C
:1023C0000700B84209D2306820F007003843306077
:1023D000306800F00700B84251D128683B4C8107B3
:1023E00012D5400703D5606840F4E060606028784B
:1023F000000703D5606840F4605060606068A968B9
:1024000020F0F000084360602878C00728D0686892
:10241000012810D02168022810D0890700292EDA5F
:10242000616821F0030101436160FFF72FFD8046E1
:1024300041F288390DE021688903EFE78901EDE772
:10244000FFF724FDA0EB0801494502D90320BDE8B0
:10245000F0876068696800F00C00B0EB810FEFD185
:10246000306800F00700B8420BD9306820F0070050
:1024700038433060306800F00700B84201D00120D6
:10248000E5E72878400705D56068E96820F4E06052
:10249000084360602878000706D56068296920F441
:1024A000605040EAC100606000F058F86168084A76
:1024B000C1F30311515CC840064908600648006832
:1024C000FFF7F6FD0020C2E70020024000100240A6
:1024D000FE94000850000020480000200F220260F7
:1024E0000C4A536803F003034360536803F0F0039E
:1024F0008360536803F4E063C36052684FF4E063A1
:1025000003EAD20202610448006800F00700086094
:1025100070470000001002400020024004480549B6
:1025200000684968044AC1F30221515CC840704701
:1025300050000020001002400E9500080448054994
:1025400000684968044AC1F3C221515CC840704721
:1025500050000020001002400E9500080E4A5168FD
:102560000E4801F00C03042B11D0082B0FD10C489E
:10257000C1F38343C903C05C0AD55168084AC1F35B
:102580004041921E515C054A5043B0FBF1F0704748
:1025900004494843704700000010024000127A00CE
:1025A000DC94000800093D002DE9F84F040070D0CC
:1025B0002078C04DC00749D06868C0F38100012869
:1025C00007D06868C0F38100022809D16868C00399
:1025D00006D52868800339D560680028E7D035E043
:1025E0006068B0F5803F0BD010B1B0F5A02F11D0CE
:1025F000286820F480302860286820F4802002E0D9
:10260000286840F480302860606890B1FFF73EFC95
:1026100006460AE0286840F480202860F0E700BF02
:10262000FFF734FC801B642873D828688003F7D533
:102630000CE0FFF72BFC064605E000BFFFF726FC89
:10264000801B6428F0D828688003F7D420789A4E3D
:1026500080074FF001094FF0000839D5686810F085
:102660000C0F07D06868C0F38100022809D16868A0
:10267000C00306D42868800714D52069012808D132
:1026800010E02069B0B1C6F80090FFF7FFFB0746E5
:1026900005E00AE1FFF7FAFBC01B0228C4D828684E
:1026A0008007F7D52868616920F0F80040EAC1008A
:1026B00028600DE0C6F80080FFF7E8FB074604E05D
:1026C000FFF7E4FBC01B022823D828688007F7D453
:1026D000207800072CD57948A169D9B1C0F80090BD
:1026E000FFF7D4FB074604E0FFF7D0FBC01B02282E
:1026F0000FD8686A8007F7D571484FF4FA5100681F
:10270000B0FBF1F0009000BF0098411E0091FAD29A
:102710000EE080E0C0F80080FFF7B8FB074604E059
:10272000FFF7B4FBC01B022875D8686A8007F7D48E
:102730002078400760D5E8690027C00008D4E86920
:1027400040F08050E861E869012700F08050009077
:102750005C480168C90513D40168834641F480715F
:102760000160FFF793FB824606E000BFFFF78EFB98
:10277000A0EB0A0064284ED8DBF80000C005F5D5B0
:10278000E06801280AD008B1052813D0286A20F093
:1027900001002862286A20F0040002E0286A40F064
:1027A00001002862E06841F2883B98B1FFF76EFBB8
:1027B00082460BE0286A40F004002862EEE700BF82
:1027C000FFF764FBA0EB0A0159455AD8286A800735
:1027D000F6D50CE0FFF75AFB824605E0FFF756FB03
:1027E000A0EB0A0159454CD8286A8007F6D41FB1DE
:1027F000E86920F08050E861E06988B36968C1F356
:102800008101022944D00228C6F8608004D0FFF775
:102810003DFB044638E034E0FFF738FB074604E0B0
:10282000FFF734FBC01B02282BD828688001F7D49F
:10283000206AB0F5803F05D16868A16820F40030B7
:1028400008436860D4E908010843696821F47411F9
:1028500008436860C6F86090FFF718FB044606E07E
:1028600025E000BFFFF712FB001B022809D82868EB
:102870008001F7D51BE000BFFFF708FB001B022813
:1028800002D90320BDE8F88F28688001F4D40EE057
:102890000128F7D06868226A00F48031914204D19F
:1028A000616A00F47010884201D00120EAE700203C
:1028B000E8E700000010024000004242800442426B
:1028C000500000200070004070B5040003D0607C10
:1028D000002610B105E0012070BD2674204600F0EE
:1028E0003DF802206074204600F052F8042550BBE9
:1028F000204602F038F930BB2068416821F007011A
:102900004160A06820B11448016821F00101016014
:102910001148001F0168A26821F460711143016031
:102920006068411C04D10120FFF770FC58B1401EC3
:102930002268C0F303419160216880B2C8602046DC
:1029400002F02CF908B16574C5E7E67301206073E5
:10295000A0736074002070BD306C004008B5006842
:10296000084988420DD1FFF74BFC0748C16941F087
:102970000061C161C069054900F00060009001205C
:10298000086008BD00280040001002403C0442429C
:1029900070B504000AD02068416821F00801416048
:1029A000FFF774FA05464FF47A7608E0012070BD0F
:1029B000FFF76CFA401BB04201D9032070BD2068BC
:1029C00040680007F4D5002070BD70B5040009D040
:1029D000606A002540B125616561A56294F85100E7
:1029E00040B10CE0012070BD6068B0F5827FF4D08A
:1029F000E561F2E784F85050204600F03FF80220ED
:102A000084F851002068016821F040010160A0882D
:102A1000218900F4827001F404410843A18901F482
:102A200000610843217C01F002010843217D01F08F
:102A300001010843218B01F400710843217F01F05B
:102A40003801084394F8201001F080010843218DDB
:102A500001F40051084321680860A069042101EADB
:102A60001040216848602068C16921F40061C1619B
:102A70006565012084F85100002070BD00B585B067
:102A80000021009101910291039100681049884250
:102A90001BD11048C16941F48041C161C16901F491
:102AA00080410491816941F0080181618069694632
:102AB00000F0080004904FF42040009002200190A4
:102AC000032003900448FFF7DBF805B000BD0000C9
:102AD0000038004000100240000C01402DE9F84F82
:102AE000044690F850000026984615468A4601286C
:102AF0000CD0012784F85070FFF7C8F9814694F88C
:102B00005100B346012804D002269AE00220BDE815
:102B1000F88FBAF1000F6FD0002D6DD0032084F82C
:102B20005100C4F854B0C4F830A0A586E586C4F8B6
:102B300038B0A4F83CB0A4F83EB0C4F844B0C4F82F
:102B400040B0A068B0F5004F09D12068016821F0BD
:102B5000400101602068016841F480410160206803
:102B60000168490603D4016841F040010160E06852
:102B7000B0F5006F606803D058B3012D29D049E04B
:102B800008B1012D1FD1206B21680088C86006E0C4
:102B900020688168890709D5216B0988C160206B8D
:102BA000801C2063E08E401EE0860CE0FFF76EF98B
:102BB000A0EB0901414503D3B8F1FF3F03D006E084
:102BC000B8F1000F03D0E08E0028E1D125E0032604
:102BD00035E0206B21680078087306E02068816882
:102BE00089070AD5216B09780173206B401C20638B
:102BF000E08E401EE0860DE01FE0FFF747F9A0EBF6
:102C00000901414503D3B8F1FF3F03D0DFE7B8F135
:102C1000000FDCD0E08E0028E0D14A464146204635
:102C200001F0F0FF08B120206065A06818B92068A5
:102C3000C16880680090606D08B1012601E084F8E9
:102C4000517084F850B0304661E77047704710B556
:102C500090F83C20012A22D0012280F83C20CA684A
:102C60008C6822F4407222434C6822F48062224332
:102C70000C6822F4006222430C6922F48052224341
:102C80004C6922F400522243C969002322F4804295
:102C90000A4301684A6480F83C30002010BD0220DD
:102CA00010BD000070B590F83C20012A2CD0012402
:102CB00080F83C40022280F83D2003685A689D68F5
:102CC00022F070060A6832435A60104B02689A423A
:102CD0000ED00F4B9A420BD0B2F1804F08D00D4B63
:102CE0009A4205D00C4B9A4202D00C4B9A4204D126
:102CF000496825F080031943916080F83D40002128
:102D000080F83C10084670BD022070BD002C0140C8
:102D1000003401400004004000080040000C004066
:102D200010B5040003D094F83D0010B107E0012075
:102D300010BD002084F83C00204600F01FF802205F
:102D400084F83D00211D206802F018FC012084F861
:102D5000460084F83E0084F83F0084F8400084F880
:102D6000410084F8420084F8430084F8440084F869
:102D7000450084F83D00002010BD000008B5204A41
:102D800001682048914207D1816941F40061816165
:102D9000806900F4006009E01B4A914208D1C169D2
:102DA00041F00801C161C06900F00800009008BD51
:102DB000164A91420ED1C16941F01001C161C0694A
:102DC000002200F0100000900A213620FFF7E6F9FB
:102DD000362010E00E4A9142E9D1C16941F020014C
:102DE000C161C069002200F0200000900A21372054
:102DF000FFF7D4F93720BDE80840FFF7C1B900005C
:102E0000002C014000100240000C00400010004067
:102E10000014004090F83D10012901D001207047B6
:102E2000022180F83D100168CA6842F00102CA60C0
:102E300000680E4988420ED00D4988420BD0B0F18F
:102E4000804F08D00B49884205D00B49884202D0F8
:102E50000A49884204D1816801F00701062903D09C
:102E6000016841F00101016000207047002C014021
:102E7000003401400004004000080040000C004005
:102E800070B5044690F83C000025012817D00126B3
:102E900084F83C60022084F83D002068826822F0BB
:102EA000770222F47F4282600868502838D00DDC17
:102EB00020284FD005DC90B3102811D14AE0022021
:102EC00070BD302846D040280AD13BE060282FD082
:102ED00070280DD0B0F5805F03D0B0F5005F12D040
:102EE000012584F83D60002084F83C00284670BD30
:102EF000CB68D1E90121206802F093FB206881684A
:102F000041F0770109E0CB68D1E90121206802F0A6
:102F100088FB2068816841F480418160E1E719E025
:102F2000CA684968206802F051FC5021206806E018
:102F3000CA684968206802F05AFC6021206802F0E3
:102F40007AFBCEE7CA684968206802F03FFC40215E
:102F50002068F4E7226801461046F0E72DE9F041C9
:102F60000D46040003D094F83D0018B108E001209C
:102F7000BDE8F081002084F83C00204600F040F8D5
:102F8000022084F83D002068816844F207029143E2
:102F90008160211D206802F0F1FA22689068916931
:102FA000166A2B68AF69034340F20330814341EA5C
:102FB0000721A868EF6908434FF6FC418843E96898
:102FC00040EA0720014328692F6A000140EA0730E0
:102FD000084369686D6926F0220646EA051529430B
:102FE00093602268906154F8460B0162012004F856
:102FF0001F09E0752076E0762077A0750020B7E7FE
:1030000000B585B000210091019102910391364BEA
:1030100001683648C02299421BD1C16941F00201C2
:10302000C161C16901F002010491816941F00401AB
:1030300081618069694600F00400049000922C4888
:10304000FEF71EFE002211461D20FFF7A7F81D20E7
:1030500026E0284B994227D1C16941F00401C161A2
:10306000C16901F004010491816941F0200181618D
:103070008069694600F0200004904FF440500090B1
:103080001D48FEF7FDFD1D48416841F0E06141F437
:1030900080514160002211461E20FFF77FF81E205C
:1030A000FFF76EF805B000BD154B9942FAD1816962
:1030B00041F400518161816901F4005104918169F9
:1030C00041F0100181618069694600F010000490B0
:1030D00000920C48FEF7D4FD002203212C20FFF7BC
:1030E0005DF82C20DCE700000004004000100240E6
:1030F00000080140000800400014014000000140A9
:10310000003401400010014070B590F83E60044664
:1031100090F83F5090F8423090F84320022021B1BF
:1031200004290ED0012E1BD114E0012E18D1012B41
:1031300016D184F83E0084F8420001220021206864
:1031400020E0012D0CD1012A0AD184F83F0084F837
:10315000430014E0012D03D1012B01D1012A01D03C
:10316000012070BD84F83E0084F83F0084F84200DE
:1031700084F8430001220021206802F045FA012270
:103180000421206802F040FA2068016841F0010142
:103190000160002070BD704770B504460068016989
:1031A0004FF00005C943890715D4C168C943890791
:1031B00011D4E91E01610120207720688069800711
:1031C000204602D0FFF7E7FF04E000F0E3F82046D6
:1031D00000F075F9257720680169C943490717D4BC
:1031E000C168C943490713D46FF00401016102208B
:1031F00020772068806910F4407F204602D0FFF7D6
:10320000CAFF04E000F0C6F8204600F058F9257720
:1032100020680169C943090716D4C168C943090771
:1032200012D46FF008010161042020772068C06982
:103230008007204602D0FFF7AEFF04E000F0AAF8B6
:10324000204600F03CF9257720680169C943C9068A
:1032500017D4C168C943C90613D46FF010010161C6
:10326000082020772068C06910F4407F204602D0F3
:10327000FFF791FF04E000F08DF8204600F01FF901
:10328000257720680169C943C90708D1C168C943C6
:10329000C90704D1891E0161204600F06BF920683E
:1032A0000169C943090609D4C168C943090605D49F
:1032B0006FF0800101612046FFF7C7FC20680169BB
:1032C000C943490609D4C168C943490605D46FF00A
:1032D00040010161204600F073F920680169C9438B
:1032E00089060BD4C168C943890607D46FF0200151
:1032F00001612046BDE87040FFF7A8BC70BD00002A
:1033000000B585B0002100910191029103911B4B02
:1033100002681B4802219A421BD1826942F0400296
:1033200082618069039100F0400004904FF4D44022
:10333000CDE9000169461348FEF7A2FC1248416836
:1033400021F0C00141F0E06141F0C001416005B0F1
:1033500000BD0E4B9A42FAD1826942F004028261AA
:103360008069039100F0040004900F20CDE9000172
:1033700069460748FEF784FCE9E70000002C01409D
:10338000001002400018014000000140000C004005
:1033900000080140704770B5044690F83C000026D4
:1033A0000D4601280FD0012084F83C006AB1042AA0
:1033B0001DD0082A2FD00C2A3FD00126002084F8E7
:1033C0003C00304670BD022070BD206802F03CF920
:1033D0002068816941F0080181612068816921F0DC
:1033E00004018161206881692A69114311E0206824
:1033F00002F05AF92068816941F400618161206816
:10340000816921F480618161206881692A6941EACA
:1034100002218161D2E7206802F07CF92068C1694D
:1034200041F00801C1612068C16921F00401C16156
:103430002068C1692A69114311E0206802F09EF9F1
:103440002068C16941F40061C1612068C16921F44B
:103450008061C1612068C1692A6941EA0221C161B4
:10346000ACE710B5040003D094F83D0010B107E0BC
:10347000012010BD002084F83C00204600F01EF81A
:10348000022084F83D00211D206802F077F8012019
:1034900084F8460084F83E0084F83F0084F8400039
:1034A00084F8410084F8420084F8430084F8440022
:1034B00084F8450084F83D00002010BD7047704737
:1034C00010B50446022249B104290ED0082913D0B0
:1034D00094F84100012816D0012010BD94F83E0058
:1034E0000128F9D184F83E200FE094F83F0001282C
:1034F000F2D184F83F2008E094F840000128EBD195
:1035000084F8402001E084F841200122206802F084
:103510007BF813492068134A884201D0904203D1B6
:10352000436C43F400434364206888420DD09042CA
:103530000BD0B0F1804F08D00B49884205D00B4921
:10354000884202D00A49884204D1816801F007010B
:10355000062903D0016841F001010160002010BD7F
:10356000002C0140003401400004004000080040ED
:10357000000C004010B5044600680F49884211D184
:103580000E4A911E881E00F0FDFC0C4A921D911EF1
:10359000881E00F010FD00F027FD05F091FD0749A1
:1035A000091FC8602068B0F1804F03D1BDE810400A
:1035B000FEF764BD10BD0000001000400C000020AC
:1035C0007047704770470000F8B501680446086806
:1035D000CA684B6910F00F0F4FF000055AD003F086
:1035E000010602F49077374365D0C10705D0D105B5
:1035F00003D5616C41F001016164410705D5D9072C
:1036000003D0616C41F002016164810705D5D907DF
:1036100003D0616C41F004016164010707D502F039
:103620002001314303D0616C41F008016164616C99
:1036300000293BD0800604D5900602D5204602F032
:1036400017F920684069616CC0F3801001F008012F
:10365000014320462BD002F0E4F820684069400680
:1036600021D52068143050E8001F21F0400140E8C7
:103670000012002AF5D1E06BA8B16D494163E06BFF
:10368000FEF7F2F8002811D0E06B416B01B0BDE805
:10369000F040084783060ED593060CD52046BDE8BA
:1036A000F84002F0E5B82046FFF78CFFF8BDFFF7C1
:1036B00089FF6564F8BD266B2023012E7CD1C606E8
:1036C0007AD5D60678D508684868009048694FF0E2
:1036D0000206400640D5E16B086840680004000C13
:1036E000E8D0A28D8242E5D9E085886920282DD0D6
:1036F00020680C3050E8001F21F4807140E800126F
:10370000002AF5D12168143151E8000F20F00100A2
:1037100041E80002002AF5D12068143050E8001F6B
:1037200021F0400140E80012002AF5D184F842302F
:10373000256320680C3050E8001F21F0100140E89C
:103740000012002AF5D1E06BFEF76AF86663A08DDF
:10375000E18D401A81B22AE0A08DE18D401A81B23C
:10376000E08D0028A6D00029A4D022680C3252E8AF
:10377000000F20F4907042E80007002FF5D1206878
:10378000143050E8002F22F0010240E80027002FFB
:10379000F5D184F84230256320680C3050E8002FC2
:1037A00022F0100240E80023002BF5D1666320468A
:1037B000FFF707FFF8BDFFE705062BD5150629D54E
:1037C00094F841002128F5D1A068B0F5805F01D1BF
:1037D0002069B0B1206A411C2162216800784860EC
:1037E000E08C401E0004000CE084E3D12068C16836
:1037F00021F08001C1602068C16841F04001C160D2
:10380000D8E7206A0088C0F308004860206A801C5E
:103810002062E5E74006CDD55006CBD5CA682046E4
:1038200022F04002CA6084F8413000F0DAF8C1E7C3
:103830001358000870B5040004D094F84100002526
:1038400010B106E0012070BD84F84050204600F021
:1038500023F8242084F841002068C16821F4005135
:10386000C160204602F066F82068016921F49041A9
:1038700001612068416921F02A0141612068C16825
:1038800041F40051C1606564202084F8410084F84F
:1038900042006563002070BDF0B585B0002400943F
:1038A0000194029403940646454D0368454902205D
:1038B0000322AB424ED18B6943F480438B618B6909
:1038C00003F4804304938B6943F004038B6189699B
:1038D0003D4D01F0040104910102CDE90010039275
:1038E00069462846FEF7CCF92815CDE9000469465B
:1038F00028460294FEF7C4F9354D3448802701C5A7
:10390000102091C5324845F810496C61AC61EC61FA
:10391000FEF766F908B1FDF7BEFEB5636E622C4D89
:103920002A4844351430C5E90004C5E902472C6132
:103930006C61AC612846EC61FEF752F908B1FDF705
:10394000AAFEF5630022012125206E62FEF726FC07
:10395000252030E01F4DAB422FD1CB6943F400331B
:10396000CB61CB6903F4003304938B6943F02003EC
:103970008B618969184D01F0200104912021CDE966
:103980000010039269462846FEF77AF94020CDE9F7
:103990000004694628460294FEF772F90F48416810
:1039A00041F0E06141F0080141600022114626200B
:1039B000FEF7F4FB2620FEF7E3FB05B0F0BD0000A8
:1039C000003801400010024000080140440002405D
:1039D0007004002000440040001401400000014039
:1039E00070477047FEE7000070B5081A05F068FBE5
:1039F000054601460C48006805F08EFB0B4C064658
:103A00002846A16805F054FC0949096805F084FBC3
:103A1000314605F0EFF9616805F0ECF9C4E90105FC
:103A2000BDE8704005F010BB04000020DC00002061
:103A30000000002070B5081A05F042FB054601465B
:103A40000C48006805F068FB0B4C06462846616987
:103A500005F02EFC0949096805F05EFB314605F0CA
:103A6000C9F9216905F0C6F9C4E90405BDE870404B
:103A700005F0EABA04000020DC000020000000206D
:103A800070B5081A05F01CFB054601460C48006895
:103A900005F042FB0B4C06462846216A05F008FC5F
:103AA0000949096805F038FB314605F0A3F9E169D9
:103AB00005F0A0F9C4E90705BDE8704005F0C4BAF7
:103AC00004000020DC000020000000202DE9F04F61
:103AD00004469148ABB011AFB0E86810299287E86E
:103AE00068106CC80DAF87E86C0050E91423CDE96D
:103AF000272350E91223CDE9252350F8588900F1F6
:103B00005C031FAF93E80C109346199350F8682B91
:103B10002A926CC887E86C0050E91820CDE9232070
:103B20000020079008900490059006901B901C9030
:103B300009900A900B9003900C901D901E901A9083
:103B4000E246084605F02AF905460E4684F0004094
:103B500005F024F92A46334602F0F4FB04F096FC03
:103B60006E4F15900DAC0222CDE9004707AE012340
:103B700011460296104604F0B5FA1BAA29A927A8F7
:103B80008DE8070001231A461946022004F0AAFA1C
:103B90001B99079805F02EF907F1080528601C9974
:103BA000089805F027F968600DF10C0905F1280166
:103BB00000940223CDE901191A461946184604F06B
:103BC00091FA09A91FAACDF80090CDE9012102239D
:103BD0001A461946184604F085FA4146099805F038
:103BE00009F94F4C594620600A9805F003F96060C6
:103BF00019990B9805F0FEF8A06051460C9805F055
:103C0000F9F8E0600DF1940A0223CDE900A40DF16A
:103C1000740B1A46CDF808B01946012004F062FA78
:103C20000DF1680823A9CDF800B0CDE901180123F2
:103C300002221146184604F055FA2A991A9805F0FE
:103C4000D9F801464FF07E5005F03CF91A9023A8B0
:103C5000CDE900400222012311460296104604F0ED
:103C600041FA05F1080B01238DE840091A4619466F
:103C7000022004F037FACDF800A0CDE90158012365
:103C800002221146184604F02DFA1A99159805F0EB
:103C90000FFB1A90CDF800B00123CDE901861A463A
:103CA0001946022004F01EFA0799286805F0A2F8C8
:103CB00038600899686805F09DF87860CDF800B024
:103CC000CDE901A9022301221146184604F00AFA9F
:103CD0000399119805F0ECFA03900499129805F0F5
:103CE000E7FA04900599139805F0E2FA0590069911
:103CF000149805F0DDFA069005F12800CDF8009043
:103D00000223CDE901401A461946184604F0EAF9A3
:103D100038682BB0BDE8F08F84B000088C0000201C
:103D2000700600202DE9F04F04469348ABB000F137
:103D300078030F4693E8681011A9299281E868106A
:103D400000F188050DF134084ECD88E84E00D0E929
:103D50000812CDE92712D0E90A12CDE92512B5E8FB
:103D60000E108846CDF858C0416892469B462A916D
:103D70002ECD1FAE86E82E00D0E90C10CDE9231021
:103D80000020079008900490059006901B901C90CE
:103D900009900A900B9003900C901D901E901A9021
:103DA000384604F0FBFF06460D4684F0004004F060
:103DB000F5FF32462B4602F0C5FA04F067FB6F4F61
:103DC00015900DAC0222CDE9004707AE0123114644
:103DD0000296104604F086F91BAA29A927A88DE8A7
:103DE000070001231A461946022004F07BF91B99AB
:103DF000079804F0FFFF07F1080528601C99089850
:103E000004F0F8FF68600DF10C0905F12000009442
:103E10000223CDE901091A461946184604F062F951
:103E200009A91FAACDF80090CDE9012102231A4665
:103E30001946184604F056F94146099804F0DAFF8D
:103E40004F4C514620600A9804F0D4FF60605946F8
:103E50000B9804F0CFFFA06016990C9804F0CAFFED
:103E6000E0600DF1940A0223CDE900A40DF1740B7A
:103E70001A46CDF808B01946012004F033F90DF1C7
:103E8000680823A9CDF800B0CDE90118012302226A
:103E90001146184604F026F92A991A9804F0AAFF48
:103EA00001464FF07E5005F00DF81A9023A8CDE999
:103EB00000400222012311460296104604F012F936
:103EC00005F1080B01238DE840091A461946022026
:103ED00004F008F9CDF800A0CDE901580123022231
:103EE0001146184604F0FEF81A99159805F0E0F905
:103EF0001A90CDF800B00123CDE901861A46194683
:103F0000022004F0EFF80799286804F073FF386086
:103F10000899686804F06EFF7860CDF800B0CDE9CC
:103F200001A9022301221146184604F0DBF8039987
:103F3000119805F0BDF903900499129805F0B8F9AD
:103F400004900599139805F0B3F905900699149813
:103F500005F0AEF9069005F12001CDF8009002239E
:103F6000CDE901411A461946184604F0BBF83868F5
:103F70002BB0BDE8F08F00004CB00008A40000207A
:103F8000800600207CB514460D4606466B46062288
:103F90003B21682000F0D2F900280BD1BDF80010B9
:103FA00049BA3180BDF8021049BA2980BDF8041021
:103FB00049BA21807CBD7CB514460D4606466B4649
:103FC00006224321682000F0B9F900280BD1BDF882
:103FD000001049BA3180BDF8021049BA2980BDF8F5
:103FE000041049BA21807CBD08B56B4602224121EC
:103FF000682000F0A3F9BDF8000040BA00B204F058
:10400000AEFC0022074B04F023FB074A074B04F0E9
:104010006FFA04F03BFA064905F07EF805F014F853
:1040200000B208BD00407540A4703D0AD74342402D
:104030000000C84270B5104D4FF480640022214644
:104040002846FDF71EFF00F019F80122D60231467E
:104050002846FDF716FF00F011F8002231462846E9
:10406000FDF70FFF00F00AF821462846BDE8704032
:104070000122FDF706BF0000001401400020401C93
:10408000C0B20A28FBD370470C4800B5816985B0DF
:1040900041F0080181618069694600F008000490E0
:1040A0004FF44060009003200390112001900448D9
:1040B000FDF7E6FD00F0AAF805B000BD00100240D3
:1040C0000014014070B50C4C012291022046FDF70E
:1040D000D8FEFFF7D3FF0122D50229462046FDF77F
:1040E000D0FEFFF7CBFF002229462046FDF7C9FE90
:1040F000BDE87040FFF7C2BF001401402DE9F04752
:104100000024164E804625464FF480694FF4006720
:104110006006040E012239463046FDF7B2FEFFF775
:10412000ADFF49463046FDF7A7FE08B1641CE4B276
:10413000002239463046FDF7A4FEFFF79FFF6D1CB5
:10414000EDB2082DE4D3B8F1000F04D0FFF772FFF1
:104150002046BDE8F087FFF7B5FFF9E700140140FE
:104160002DE9F041174E054600244FF400674FF447
:104170008068280601D5012200E000224146304631
:10418000FDF77FFEFFF77AFF012239463046FDF743
:1041900078FEFFF773FF002239463046FDF771FEC7
:1041A000072C04D1012241463046FDF76AFE68061D
:1041B000050EFFF763FF641CE4B2082CD9D3BDE8F9
:1041C000F08100000014014070B501220E4D9402F0
:1041D00021462846FDF755FE0122D60231462846E3
:1041E000FDF74FFEFFF74AFF002221462846FDF764
:1041F00048FEFFF743FF002231462846FDF741FE07
:10420000BDE87040FFF73ABF0014014070B50B4D98
:104210004FF48064002221462846FDF732FE012239
:10422000D1022846FDF72DFEFFF728FF214628463C
:10423000BDE870400122FDF724BE000000140140DB
:1042400070B50122104D940221462846FDF719FE53
:10425000FFF714FF0122D60231462846FDF711FE72
:10426000FFF70CFF21462846FDF706FE08B10124A2
:1042700000E00024002231462846FDF702FEFFF749
:10428000FDFE204670BD00000014014010B5FFF790
:10429000FBFE80216B2000F0C0F86420FDF7DEFCFF
:1042A00000216B2000F0B9F8032000F082F8002014
:1042B00000F07AF8322000F099F80021382000F060
:1042C000ACF800216A2000F0A8F80021232000F0BB
:1042D000A4F88021372000F0A0F8752000F011F834
:1042E000682801D0012010BD01216B2000F095F855
:1042F00000216C2000F091F8322000F077F80020C7
:1043000010BD10B50446FFF75FFFD020FFF728FF70
:10431000FFF796FF2046FFF723FFFFF791FFFFF718
:1043200053FFD120FFF71CFFFFF78AFF0020FFF7A4
:10433000E5FE0446FFF76AFF204610BD2DE9F04177
:104340001D4614460F460646FFF73EFF7006000E58
:10435000FFF706FFFFF774FF20B1FFF757FF0120BB
:10436000BDE8F0813846FFF7FBFEFFF769FFFFF776
:104370002BFF012000EB4600C0B2FFF7F1FEFFF774
:104380005FFF09E0012C0DD05FF00100FFF7B6FEE2
:10439000641E05F8010BE4B2002CF3D1FFF736FFE1
:1043A0000020DDE70020F1E7C006010E1C2000F030
:1043B00034B8C006010E1B2000F02FB8BC2801D372
:1043C000012110E0622801D302210CE02A2801D348
:1043D000032108E0142801D3042104E00A2801D3B2
:1043E000052100E006211A2000F017B810B5044698
:1043F0004FF47A70844201D9044602E0042C00D2C2
:104400000424B0FBF4F0401EC1B2192000F005F8FE
:104410006008BDE81040FFF7D1BF70B50C460546F7
:10442000FFF7D2FED020FFF79BFEFFF709FF50B940
:104430002846FFF795FEFFF703FF2046FFF790FEA3
:10444000FFF7FEFE18B1FFF7E1FE012070BDFFF798
:10445000DDFE002070BD2DE9F0411E4615460F46D9
:104460000446FFF7B1FE6006000EFFF779FEFFF786
:10447000E7FE60B93846FFF773FEFFF7E1FE002460
:104480000CE0305DFFF76CFEFFF7DAFE20B1FFF7BE
:10449000BDFE0120BDE8F081641CE4B2AC42F0D363
:1044A000FFF7B4FE0020F5E70D4810B50B49016099
:1044B0001021416000218160C1600161416101768C
:1044C00041768176C17601774177FDF7E6F80028DD
:1044D00003D0BDE81040FDF7DEB810BD0064004019
:1044E000000100200D4808B5416941F0010141611A
:1044F0004069002200F00100009002210E20FDF72B
:104500004DFE0E20FDF73CFE002202210F20FDF79C
:1045100045FEBDE808400F20FDF732BE0010024006
:104520002DE9F04F85B00024424800940194029494
:104530000394816941F010018161816901F01001EA
:104540000491816941F004018161816901F00401F4
:104550000491816941F008018161816901F00801DC
:104560000491816941F040018161816901F040015C
:104570000491816941F0200181618069DFF8B8A070
:1045800000F0200044F23F450490002229465046A6
:10459000FDF777FC0122D70339465046FDF771FC41
:1045A000DFF898B045F20308002241465846FDF76F
:1045B00068FC4FF44069002249462148FDF761FC40
:1045C0000095022601250396CDE90154694650461F
:1045D000FDF756FB01AA1120009782E851006946B9
:1045E0005046FDF74DFBCDF800800396CDE9015410
:1045F00069465846FDF744FB124E6802CDE90006B5
:10460000694602940E48FDF73BFB0320CDE90250BA
:10461000CDE9009569460A48FDF732FB2802CDE94D
:104620000006694602940848FDF72AFB05B0BDE87C
:10463000F08F00000010024000100140000C01400B
:104640000014014000001110000801400D4810B591
:104650000B4901600C49416000214FF480428160A8
:10466000C0E9031241618161C1610162FDF714FC7F
:10467000002803D0BDE81040FDF70DB810BD0000C4
:104680000054004028010020A08601000A4810B50F
:10469000084901604FF0FF3141604FF48071816043
:1046A000FEF712F9002803D0BDE81040FCF7F3BF75
:1046B00010BD0000002800407C0100200F4810B50C
:1046C0000D4901604FF48271416000218160C16039
:1046D0004FF400720161C0E90512C16101624162DB
:1046E00081620A21C162FEF770F9002803D0BDE89B
:1046F0001040FCF7D0BF10BD0038004090010020F2
:1047000010B596B000240F94109411941294139441
:104710001C2168461494FBF707FF202107A8FBF72C
:1047200003FF3C483A49C0E9001441F61F41C0E983
:104730000241046144618461FEF7F2FA08B1FCF7BA
:10474000AAFF4FF480500F900FA93248FEF798FB54
:1047500008B1FCF7A0FF2F48FEF783FE08B1FCF775
:104760009AFF139413A92B481494FEF79BFA08B1EF
:10477000FCF791FF6020CDE90004029403940494B7
:1047800005940022694623480694FEF704FE08B10A
:10479000FCF781FF042269461E48FEF7FCFD08B1C4
:1047A000FCF779FF082269461A48FEF7F4FD08B1C4
:1047B000FCF771FF0C2269461648FEF7ECFD08B1C4
:1047C000FCF769FF0794089409944FF400500A9489
:1047D000CDE90B4007A90F480E94FEF738FA08B14F
:1047E000FCF759FF00210B48FEF76AFE0421094837
:1047F000FEF766FE08210748FEF762FE0C21054819
:10480000FEF75EFE0348FEF77BFD16B010BD00000C
:10481000002C0140E801002010B58CB0242168462E
:10482000FBF782FE00241948099417490A94C0E94D
:1048300000144FF6FF71C0E9024104618461012058
:10484000CDE90004CDE902040A210491CDE9054037
:10485000CDE9074169460D48FEF780FB08B1FCF73A
:104860001AFF099409A909480A94FEF71BFA08B12E
:10487000FCF711FF00210548FEF746FC0421034820
:10488000FEF742FC0CB010BD0004004030020020D6
:1048900010B58CB024216846FBF746FE0024194869
:1048A000099417490A94C0E900144FF6FF71C0E952
:1048B0000241046184610120CDE90004CDE90204D4
:1048C0000A210491CDE90540CDE9074169460D482B
:1048D000FEF744FB08B1FCF7DEFE099409A909487C
:1048E0000A94FEF7DFF908B1FCF7D5FE0021054870
:1048F000FEF70AFC04210348FEF706FC0CB010BDCD
:10490000000800407802002010B58EB00024079403
:10491000089409940A940B941C2168460C94FBF7A4
:1049200003FE3248304901604721C0E9011440F2DA
:10493000E731C0E903148461FEF7F2F908B1FCF72E
:10494000AAFE4FF48050079007A92848FEF798FA6E
:1049500008B1FCF7A0FE2548FEF783FD08B1FCF77F
:104960009AFE0B940BA921480C94FEF79BF908B111
:10497000FCF791FE6020CDE9000402940022694614
:104980001A480494FEF707FD08B1FCF784FE0422E0
:1049900069461648FEF7FFFC08B1FCF77CFE0822CA
:1049A00069461248FEF7F7FC08B1FCF774FE0C22CA
:1049B00069460E48FEF7EFFC08B1FCF76CFE0021DB
:1049C0000A48FEF77DFD04210848FEF779FD08211D
:1049D0000648FEF775FD0C210448FEF771FD0348FB
:1049E000FEF78EFC0EB010BD000C0040C00200208F
:1049F0001CB500240E4800940C490194016047F650
:104A0000FF41C0E9011489118461C160FEF788F992
:104A100008B1FCF740FE0094694605480194FEF792
:104A200041F9002801D0FCF736FE1CBD0010004003
:104A3000080300201CB500240F4800940D49019480
:104A4000016040F60F61C0E9011440F2E731846172
:104A5000C160FEF765F908B1FCF71DFE00946946D8
:104A600005480194FEF71EF9002801D0FCF713FE5B
:104A70001CBD0000001400405003002010B58CB095
:104A800024216846FBF750FD002418480994164974
:104A90000A94C0E900144FF6FF71C0E902410461B5
:104AA000446184610320CDE900040120CDE90204C2
:104AB0000A210491CDE90540CDE9074169460B483B
:104AC000FEF74CFA08B1FCF7E6FD099409A907487E
:104AD0000A94FEF7E7F808B1FCF7DDFD3C21034836
:104AE000FEF712FB0CB010BD00340140980300200B
:104AF0000C4810B50A4901604FF4E13141600021D2
:104B000081600C22C160C0E904128161C161FEF7BD
:104B100091FE002803D0BDE81040FCF7BCBD10BDDD
:104B200000380140E00300200C4810B50A4901603C
:104B30004FF4E1314160002181600C22C160C0E985
:104B400004128161C161FEF775FE002803D0BDE843
:104B50001040FCF7A0BD10BD004400402804002018
:104B6000FEE7FEE7704770B50446FDF78FF905468E
:104B70004FF47A7606E0FDF789F9401BB04201D97F
:104B8000032070BD206840688006F4D52068416825
:104B900041F010014160002070BD000070B5044676
:104BA0000068416821F010014160FDF76FF905468A
:104BB0004FF47A7607E000BFFDF768F9401BB0427A
:104BC00001D9032070BD206840688006F4D500201C
:104BD00070BD00000021032805D0042807D0082854
:104BE00003D000207047044A02E0044A00E0044A6F
:104BF0001068116000B27047240400402434014062
:104C00002408004038B50B4600920446002280215B
:104C100000F008F8002804D0606D40F020006065C6
:104C2000032038BD2DE9F8431E46914688460446C8
:104C3000089DFDF72BF9401B351AFDF727F90746AC
:104C400025480068C0F3CB30684338E0701C37D08B
:104C5000FDF71CF9C01BA84203D215B1009860B340
:104C60002CE02068416821F0E00141606068B0F507
:104C7000827F0BD1A068B0F5004F02D0B0F5806FF5
:104C800004D12068016821F040010160A06AB0F5FC
:104C9000005F09D12068016821F40051016020689B
:104CA000016841F400510160012084F851000020A6
:104CB00084F850000320BDE8F8830025401E0090D2
:104CC0002068816838EA010004D000214945BDD13F
:104CD0000020F0E70121F9E7500000202DE9FF4F07
:104CE00083B09846DDE910944A1E637825781A440B
:104CF000D3B2421E2A44D2B2C9B2C0B200F022FAE4
:104D00002C2000F073FA002637E01F4884420598F3
:104D100001D12E3800E0203800FB016061680025D9
:104D20004FEA192B51F820704FEA1820019008F033
:104D3000FF0009F0FF0A00901BE000BF07FA05F131
:104D4000102802D94FF0004001E04FF4004001422A
:104D500006D001988DF8080000988DF8090003E04E
:104D60008DF808B08DF809A0022102A800F05EFAC3
:104D70006D1C2078A842E1D8761C6178B142C4D875
:104D800007B0BDE8F08F0000FCA300082DE9FC4748
:104D90009946DDE90A8416460F46054616E0207856
:104DA0002844862803D960780525384487B260787E
:104DB000384496280DD8CDE900844B46394628461C
:104DC000FFF78CFF2078761C284485B23278002AC1
:104DD000E5D1BDE8FC8700002DE9F04188B08046B0
:104DE000DDE90E451E460F46104603F0D7FF02468A
:104DF0000B4607A102A8FBF74DFA334602AA394633
:104E00004046CDE90045FFF7C1FF08B0BDE8F0819D
:104E100025302E32660000002DE9F04188B00F46A3
:104E2000DDE90E4580461E4607A102A8FBF732FACF
:104E3000334602AA39464046CDE90045FFF7A6FFB2
:104E400008B0BDE8F0810000256400002DE9F041C4
:104E50001E46069B002415461F0A134ADBB207E0D4
:104E600002F8147002EB440C641C8CF80130A4B2FC
:104E7000AC42F5D38A19521ED3B24219521ED2B295
:104E8000C9B2C0B200F05EF92C2000F0AFF90024E6
:104E90006D0005E02946044800F0C8F9641CA4B27E
:104EA000B442F7D3BDE8F081400500202DE9F04180
:104EB00088B00F46DDE90E4580461E4607A102A8D0
:104EC000FBF7E8F9334602AA39464046CDE90045EA
:104ED000FFF75CFF08B0BDE8F0810000257300001B
:104EE00008B500210090A02390220846FFF7AEFFEE
:104EF00008BD10B500F00EF9112000F077F9782008
:104F0000FCF7ACFEB12000F071F9012000F050F97F
:104F10002C2000F04DF92D2000F04AF9B22000F0CD
:104F200065F9012000F044F92C2000F041F92D2012
:104F300000F03EF9B32000F059F9012000F038F9F3
:104F40002C2000F035F92D2000F032F9012000F07E
:104F50002FF92C2000F02CF92D2000F029F9B42095
:104F600000F044F9072000F023F9C02000F03EF9DA
:104F7000A22000F01DF9022000F01AF9842000F0B0
:104F800017F9C12000F032F9C52000F011F9C22054
:104F900000F02CF90A2000F00BF9002000F008F9CD
:104FA000C32000F023F98A2000F002F92A2000F043
:104FB000FFF8C42000F01AF98A2000F0F9F8EE207A
:104FC00000F0F6F8C52000F011F90E2000F0F0F81E
:104FD000202000F00BF93A2000F008F9052000F03D
:104FE000E7F82A2000F002F9002000F0E1F80020A4
:104FF00000F0DEF8002000F0DBF87F2000F0D8F8A9
:105000002B2000F0F3F8002000F0D2F8002000F090
:10501000CFF8002000F0CCF89F2000F0C9F8E02085
:1050200000F0E4F8022000F0C3F81C2000F0C0F803
:10503000072000F0BDF8122000F0BAF8372000F089
:10504000B7F8322000F0B4F8292000F0B1F82D2094
:1050500000F0AEF8292000F0ABF8252000F0A8F809
:105060002B2000F0A5F8392000F0A2F8002000F075
:105070009FF8012000F09CF8032000F099F8102020
:1050800000F096F8E12000F0B1F8032000F090F86D
:105090001D2000F08DF8072000F08AF8062000F0AF
:1050A00087F82E2000F084F82C2000F081F82920C9
:1050B00000F07EF82D2000F07BF82E2000F078F82C
:1050C0002E2000F075F8372000F072F83F2000F035
:1050D0006FF8002000F06CF8002000F069F8022062
:1050E00000F066F8102000F063F8132000F07EF85E
:1050F0000A20FCF7B3FD292000F078F80A20FCF71D
:10510000ADFD002000F03CF8BDE810400020FFF7A6
:10511000E7BE000070B50A4D4FF4806400222146BE
:105120002846FCF7AEFE6420FCF798FD01222146DC
:105130002846FCF7A6FEBDE870406420FCF78EBD53
:1051400000100140F8B507461C4615460E462A20B9
:1051500000F04CF8002000908DF801708DF803509D
:105160000421684600F062F82B2000F03FF88DF82B
:1051700001608DF803400421684600F057F8F8BD3F
:1051800010B5002430B1012806D0022807D003282A
:1051900005D103E0C02402E0A02400E06024362012
:1051A00000F024F82046BDE8104000F001B80000EF
:1051B00031B50C4C012291032046FCF762FEA51488
:1051C000002229462046FCF75CFE4FF0FF33012207
:1051D00069460548FDF782FC012229462046FCF776
:1051E00050FE38BD000C01409001002031B50D4C3F
:1051F00000224FF480412046FCF743FEA514002214
:1052000029462046FCF73DFE4FF0FF330122694658
:105210000548FDF763FC012229462046FCF731FED4
:1052200038BD0000000C0140900100202DE9F04144
:105230000D4E0C460546012291033046FCF721FE37
:10524000B714002239463046FCF71BFEA2B24FF0DD
:10525000FF3329460548FDF741FC39463046BDE895
:10526000F0410122FCF70DBE000C0140900100202E
:105270007047000070B50D4C051E06DD00220221AE
:105280002046FCF7FEFD012205E001220221204616
:10529000FCF7F7FD002201212046FCF7F2FD28462D
:1052A00002F06AFF0249086070BD0000000C014076
:1052B000342C014070B50D4C051E06DD0022022184
:1052C0002046FCF7DEFD012205E0012202212046F6
:1052D000FCF7D7FD002201212046FCF7D2FD28462D
:1052E00002F04AFF0249086070BD00000010014052
:1052F000382C014070B50D4C051E06DD002208213A
:105300002046FCF7BEFD012205E0012208212046CF
:10531000FCF7B7FD002204212046FCF7B2FD284629
:1053200002F02AFF0249086070BD00000010014031
:105330003C2C01402DE9F04F8DB004460D46DDE9CF
:10534000160116461F46434A434B03F033FB804683
:10535000894601914148424903F032F832463B46C2
:1053600003F028FB82468B463C483D4901F0AAF8F1
:1053700022462B4603F01EFB52465B4603F0B8F86C
:1053800042464B4603F0B4F8CDE9060135483649AC
:10539000DDF8049003F014F832463B4603F00AFBB4
:1053A00082468B462F48304901F08CF802460B4666
:1053B000204685F0004103F0FDFA52465B4603F0BB
:1053C00003FC42464B4603F093F882468946234845
:1053D0002649DDF804B002F0F3FF22462B4603F025
:1053E000E9FA054601911D48204901F06BF8324663
:1053F0003B4603F0DFFA2A46019B03F0E5FB4246F9
:105400005B4603F075F805460C46DDE9060103F03E
:1054100077FA014616480068FEF7E6FAFFF72AFF1A
:105420005046494603F06CFA014612480068FEF700
:1054300001FBFFF73FFF2846214603F061FA0146D2
:105440000D480068FEF71CFB0DB0BDE8F04FFFF7FC
:1054500051BF0000B81E85EB51B8BE3FA138DB3705
:1054600052C1E03FF2D4C853FB21F93F52C1F03F93
:1054700034000020380000203C000020704770B548
:1054800096B028216846FBF74FF814210AA8FBF7CD
:105490004BF818210FA8FBF747F8092001240090CA
:1054A0004FF48030002504940694CDE901050226CE
:1054B000CDE907604FF4E01009906846FDF774F8F5
:1054C00008B172B6FEE70F20CDE90A064FF48060FE
:1054D000CDE90C5002210AA80E95FCF769FF08B12E
:1054E00072B6FEE74FF40070CDE90F400FA8FCF74D
:1054F000E9FE002801D072B6FEE716B070BD704715
:105500000148FDF749BE0000F80400200148FDF7FE
:1055100043BE0000300200200148FDF73DBE000000
:10552000780200200148FDF737BE00000803002084
:1055300010B50820FFF74EFB094940000860032022
:10554000FFF748FB0749400008600420FFF742FBD3
:10555000054940000860BDE810400448FDF71CBE46
:1055600034000020380000203C00002050030020C0
:105570000148FDF711BE000098030020F0B5026855
:105580001C4B1D4D1D4E1E4F1E4C4FF0804C984223
:1055900009D0A04207D0604505D0A84203D0B04250
:1055A00001D0B84204D122F0700E4A6842EA0E02DD
:1055B000984209D0A04207D0604505D0A84203D048
:1055C000B04201D0B84203D122F44075CA682A43E0
:1055D0004D6922F080022A4302608A68C2620A682A
:1055E0008262984201D0A04201D109690163012180
:1055F0004161F0BD002C0140000400400008004063
:10560000000C00400034014010B501F01F030121DF
:10561000046A99408C430462016A9A401143016212
:1056200010BD10B5846842EA032224F47F440A4383
:105630002243826010BD826822F070020A4342F069
:105640000701816070470000F0B5036A026A22F02A
:105650000102026242688469124E24F073050C68EC
:105660002C4323F002058B682B430D4DA84201D03B
:10567000B04205D123F00807CB683B4323F0040375
:10568000A84201D0B04205D14D6922F440721543C1
:105690008A692A4342608461496841630362F0BDBC
:1056A000002C014000340140F0B5026A036A23F087
:1056B00010030362436884690D6824F4E64444EAF5
:1056C00005248D6822F0200242EA05120F4D104E8B
:1056D000A84201D0B04206D1CF6822F0800242EA4F
:1056E000071222F04002A84201D0B04207D14D6912
:1056F00023F4406343EA85038D6943EA85034360ED
:105700008461496881630262F0BD0000002C0140A1
:1057100000340140F0B5026A036A23F48073036227
:105720004368C46922F4007224F073050C68124EB9
:105730002C438D6842EA05220E4DA84201D0B042AA
:1057400006D1CF6822F4006242EA072222F4806286
:10575000A84201D0B04207D14D6923F4405343EA37
:1057600005138D6943EA05134360C4614968C16349
:105770000262F0BD002C01400034014030B5046AE3
:10578000026A22F4805202624268C3690D6823F4FF
:10579000E64343EA05238D6824F4005444EA0534C3
:1057A000084DA84202D0084DA84204D14D6922F408
:1057B000804242EA85124260C36149680164046222
:1057C00030BD0000002C01400034014010B5036AD8
:1057D000046A24F001040462846924F0F00444EAB9
:1057E000021423F00A020A438461026210BD10B55C
:1057F000036A046A24F010040462846923F0A0039D
:1058000024F4704444EA023243EA011182610162E5
:1058100010BD10B5406A0021C185C184FDF7D2FEDC
:1058200010BD01680C3151E8002F22F4907241E85C
:105830000023002BF5D10168143151E8002F22F02C
:10584000010241E80023002BF5D1016B012909D1A8
:1058500001680C3151E8002F22F0100241E80023CA
:10586000002BF5D1202180F8421000210163704700
:1058700008B590F84210222901D0022008BD8268A4
:105880004FF480539A4201D1016921B1816A9A4251
:105890001BD04AB10AE00268816A5268C2F308026A
:1058A0000A80816A891C08E0026972B10268526844
:1058B00002F07F020A70816A491C8162C18D491E13
:1058C0000904090CC18503D01BE002685268F1E7A6
:1058D0000168CA6822F02002CA600168CA6822F41E
:1058E0008072CA6001684A6922F001024A6120217F
:1058F00080F8421000214163026B012A03D0FEF7B9
:105900006FF8002008BD016301680C3151E8002FD9
:1059100022F0100241E80023002BF5D101680A684B
:10592000D20602D50A6849680091818DFDF749FECB
:10593000E7E7000070B5044600680169E26821F4F9
:105940004051114301612169A0680843616908431E
:105950002168CA6841F20C639A430243CA60206816
:105960004169A26921F44071114341611E492068D7
:10597000884202D1FCF7E2FD01E0FCF7CFFD00EB2D
:10598000C00101EB0012606864218000B2FBF0F3FB
:10599000B3FBF1F36FF018067343B2FBF0F5B2FB03
:1059A000F0F605EB8305322303EB0515B5FBF1F5A6
:1059B000B6FBF1F605F0F00505EB0615B2FBF0F6C7
:1059C000B2FBF0F0B0FBF1F06FF01802504306EBC1
:1059D000800003EB0010B0FBF1F0216800F00F0035
:1059E0002844886070BD0000003801400148FDF780
:1059F000EBBD0000E00300200148FDF7E5BD00001D
:105A000028040020FEE7490050EAC12018BF042006
:105A10004A0D18BF40F0010040F2FF72B2EB515F37
:105A200008BF40F00200012808BF052070470907A1
:105A3000090E002804DB00F1E02080F80014704714
:105A400000F00F0000F1E02080F8141D7047000006
:105A50002DE9F74F144694B00021C4E902111599BD
:105A6000079121F00045C9498D4206DC1599C4E92A
:105A7000000117B00020BDE8F08FC549DFF814A37E
:105A8000A9423CDD0799C44E0029C44FC44A159968
:105A9000534619DD03F098F8554506D0C14AC24B6C
:105AA00003F092F8C4E900010AE04FF0D352BE4B74
:105AB00003F08AF832463B4603F086F8C4E9000159
:105AC00017B00120BDE8F08F02F012FD554506D059
:105AD000B44AB54B02F00CFDC4E900010AE04FF0F6
